{
  "_format": "hh-sol-artifact-1",
  "contractName": "aToken",
  "sourceName": "contracts/aToken.sol",
  "abi": [
    {
      "inputs": [
        {
          "internalType": "contract IERC20",
          "name": "asset",
          "type": "address"
        },
        {
          "internalType": "string",
          "name": "name",
          "type": "string"
        },
        {
          "internalType": "string",
          "name": "symbol",
          "type": "string"
        }
      ],
      "stateMutability": "nonpayable",
      "type": "constructor"
    },
    {
      "inputs": [
        {
          "internalType": "address",
          "name": "spender",
          "type": "address"
        },
        {
          "internalType": "uint256",
          "name": "allowance",
          "type": "uint256"
        },
        {
          "internalType": "uint256",
          "name": "needed",
          "type": "uint256"
        }
      ],
      "name": "ERC20InsufficientAllowance",
      "type": "error"
    },
    {
      "inputs": [
        {
          "internalType": "address",
          "name": "sender",
          "type": "address"
        },
        {
          "internalType": "uint256",
          "name": "balance",
          "type": "uint256"
        },
        {
          "internalType": "uint256",
          "name": "needed",
          "type": "uint256"
        }
      ],
      "name": "ERC20InsufficientBalance",
      "type": "error"
    },
    {
      "inputs": [
        {
          "internalType": "address",
          "name": "approver",
          "type": "address"
        }
      ],
      "name": "ERC20InvalidApprover",
      "type": "error"
    },
    {
      "inputs": [
        {
          "internalType": "address",
          "name": "receiver",
          "type": "address"
        }
      ],
      "name": "ERC20InvalidReceiver",
      "type": "error"
    },
    {
      "inputs": [
        {
          "internalType": "address",
          "name": "sender",
          "type": "address"
        }
      ],
      "name": "ERC20InvalidSender",
      "type": "error"
    },
    {
      "inputs": [
        {
          "internalType": "address",
          "name": "spender",
          "type": "address"
        }
      ],
      "name": "ERC20InvalidSpender",
      "type": "error"
    },
    {
      "inputs": [
        {
          "internalType": "address",
          "name": "receiver",
          "type": "address"
        },
        {
          "internalType": "uint256",
          "name": "assets",
          "type": "uint256"
        },
        {
          "internalType": "uint256",
          "name": "max",
          "type": "uint256"
        }
      ],
      "name": "ERC4626ExceededMaxDeposit",
      "type": "error"
    },
    {
      "inputs": [
        {
          "internalType": "address",
          "name": "receiver",
          "type": "address"
        },
        {
          "internalType": "uint256",
          "name": "shares",
          "type": "uint256"
        },
        {
          "internalType": "uint256",
          "name": "max",
          "type": "uint256"
        }
      ],
      "name": "ERC4626ExceededMaxMint",
      "type": "error"
    },
    {
      "inputs": [
        {
          "internalType": "address",
          "name": "owner",
          "type": "address"
        },
        {
          "internalType": "uint256",
          "name": "shares",
          "type": "uint256"
        },
        {
          "internalType": "uint256",
          "name": "max",
          "type": "uint256"
        }
      ],
      "name": "ERC4626ExceededMaxRedeem",
      "type": "error"
    },
    {
      "inputs": [
        {
          "internalType": "address",
          "name": "owner",
          "type": "address"
        },
        {
          "internalType": "uint256",
          "name": "assets",
          "type": "uint256"
        },
        {
          "internalType": "uint256",
          "name": "max",
          "type": "uint256"
        }
      ],
      "name": "ERC4626ExceededMaxWithdraw",
      "type": "error"
    },
    {
      "inputs": [
        {
          "internalType": "address",
          "name": "owner",
          "type": "address"
        }
      ],
      "name": "OwnableInvalidOwner",
      "type": "error"
    },
    {
      "inputs": [
        {
          "internalType": "address",
          "name": "account",
          "type": "address"
        }
      ],
      "name": "OwnableUnauthorizedAccount",
      "type": "error"
    },
    {
      "inputs": [
        {
          "internalType": "address",
          "name": "token",
          "type": "address"
        }
      ],
      "name": "SafeERC20FailedOperation",
      "type": "error"
    },
    {
      "anonymous": false,
      "inputs": [
        {
          "indexed": true,
          "internalType": "address",
          "name": "owner",
          "type": "address"
        },
        {
          "indexed": true,
          "internalType": "address",
          "name": "spender",
          "type": "address"
        },
        {
          "indexed": false,
          "internalType": "uint256",
          "name": "value",
          "type": "uint256"
        }
      ],
      "name": "Approval",
      "type": "event"
    },
    {
      "anonymous": false,
      "inputs": [
        {
          "indexed": true,
          "internalType": "address",
          "name": "sender",
          "type": "address"
        },
        {
          "indexed": true,
          "internalType": "address",
          "name": "owner",
          "type": "address"
        },
        {
          "indexed": false,
          "internalType": "uint256",
          "name": "assets",
          "type": "uint256"
        },
        {
          "indexed": false,
          "internalType": "uint256",
          "name": "shares",
          "type": "uint256"
        }
      ],
      "name": "Deposit",
      "type": "event"
    },
    {
      "anonymous": false,
      "inputs": [
        {
          "indexed": true,
          "internalType": "address",
          "name": "previousOwner",
          "type": "address"
        },
        {
          "indexed": true,
          "internalType": "address",
          "name": "newOwner",
          "type": "address"
        }
      ],
      "name": "OwnershipTransferred",
      "type": "event"
    },
    {
      "anonymous": false,
      "inputs": [
        {
          "indexed": true,
          "internalType": "address",
          "name": "from",
          "type": "address"
        },
        {
          "indexed": true,
          "internalType": "address",
          "name": "to",
          "type": "address"
        },
        {
          "indexed": false,
          "internalType": "uint256",
          "name": "value",
          "type": "uint256"
        }
      ],
      "name": "Transfer",
      "type": "event"
    },
    {
      "anonymous": false,
      "inputs": [
        {
          "indexed": true,
          "internalType": "address",
          "name": "sender",
          "type": "address"
        },
        {
          "indexed": true,
          "internalType": "address",
          "name": "receiver",
          "type": "address"
        },
        {
          "indexed": true,
          "internalType": "address",
          "name": "owner",
          "type": "address"
        },
        {
          "indexed": false,
          "internalType": "uint256",
          "name": "assets",
          "type": "uint256"
        },
        {
          "indexed": false,
          "internalType": "uint256",
          "name": "shares",
          "type": "uint256"
        }
      ],
      "name": "Withdraw",
      "type": "event"
    },
    {
      "inputs": [],
      "name": "accrueInterest",
      "outputs": [],
      "stateMutability": "nonpayable",
      "type": "function"
    },
    {
      "inputs": [
        {
          "internalType": "address",
          "name": "owner",
          "type": "address"
        },
        {
          "internalType": "address",
          "name": "spender",
          "type": "address"
        }
      ],
      "name": "allowance",
      "outputs": [
        {
          "internalType": "uint256",
          "name": "",
          "type": "uint256"
        }
      ],
      "stateMutability": "view",
      "type": "function"
    },
    {
      "inputs": [
        {
          "internalType": "address",
          "name": "spender",
          "type": "address"
        },
        {
          "internalType": "uint256",
          "name": "value",
          "type": "uint256"
        }
      ],
      "name": "approve",
      "outputs": [
        {
          "internalType": "bool",
          "name": "",
          "type": "bool"
        }
      ],
      "stateMutability": "nonpayable",
      "type": "function"
    },
    {
      "inputs": [],
      "name": "asset",
      "outputs": [
        {
          "internalType": "address",
          "name": "",
          "type": "address"
        }
      ],
      "stateMutability": "view",
      "type": "function"
    },
    {
      "inputs": [
        {
          "internalType": "address",
          "name": "account",
          "type": "address"
        }
      ],
      "name": "balanceOf",
      "outputs": [
        {
          "internalType": "uint256",
          "name": "",
          "type": "uint256"
        }
      ],
      "stateMutability": "view",
      "type": "function"
    },
    {
      "inputs": [
        {
          "internalType": "uint256",
          "name": "shares",
          "type": "uint256"
        }
      ],
      "name": "convertToAssets",
      "outputs": [
        {
          "internalType": "uint256",
          "name": "",
          "type": "uint256"
        }
      ],
      "stateMutability": "view",
      "type": "function"
    },
    {
      "inputs": [
        {
          "internalType": "uint256",
          "name": "assets",
          "type": "uint256"
        }
      ],
      "name": "convertToShares",
      "outputs": [
        {
          "internalType": "uint256",
          "name": "",
          "type": "uint256"
        }
      ],
      "stateMutability": "view",
      "type": "function"
    },
    {
      "inputs": [],
      "name": "decimals",
      "outputs": [
        {
          "internalType": "uint8",
          "name": "",
          "type": "uint8"
        }
      ],
      "stateMutability": "view",
      "type": "function"
    },
    {
      "inputs": [
        {
          "internalType": "uint256",
          "name": "assets",
          "type": "uint256"
        },
        {
          "internalType": "address",
          "name": "receiver",
          "type": "address"
        }
      ],
      "name": "deposit",
      "outputs": [
        {
          "internalType": "uint256",
          "name": "",
          "type": "uint256"
        }
      ],
      "stateMutability": "nonpayable",
      "type": "function"
    },
    {
      "inputs": [],
      "name": "getInterestRate",
      "outputs": [
        {
          "internalType": "uint256",
          "name": "",
          "type": "uint256"
        }
      ],
      "stateMutability": "view",
      "type": "function"
    },
    {
      "inputs": [],
      "name": "interestRate",
      "outputs": [
        {
          "internalType": "uint256",
          "name": "",
          "type": "uint256"
        }
      ],
      "stateMutability": "view",
      "type": "function"
    },
    {
      "inputs": [],
      "name": "lastInterestUpdate",
      "outputs": [
        {
          "internalType": "uint256",
          "name": "",
          "type": "uint256"
        }
      ],
      "stateMutability": "view",
      "type": "function"
    },
    {
      "inputs": [
        {
          "internalType": "address",
          "name": "",
          "type": "address"
        }
      ],
      "name": "maxDeposit",
      "outputs": [
        {
          "internalType": "uint256",
          "name": "",
          "type": "uint256"
        }
      ],
      "stateMutability": "view",
      "type": "function"
    },
    {
      "inputs": [
        {
          "internalType": "address",
          "name": "",
          "type": "address"
        }
      ],
      "name": "maxMint",
      "outputs": [
        {
          "internalType": "uint256",
          "name": "",
          "type": "uint256"
        }
      ],
      "stateMutability": "view",
      "type": "function"
    },
    {
      "inputs": [
        {
          "internalType": "address",
          "name": "owner",
          "type": "address"
        }
      ],
      "name": "maxRedeem",
      "outputs": [
        {
          "internalType": "uint256",
          "name": "",
          "type": "uint256"
        }
      ],
      "stateMutability": "view",
      "type": "function"
    },
    {
      "inputs": [
        {
          "internalType": "address",
          "name": "owner",
          "type": "address"
        }
      ],
      "name": "maxWithdraw",
      "outputs": [
        {
          "internalType": "uint256",
          "name": "",
          "type": "uint256"
        }
      ],
      "stateMutability": "view",
      "type": "function"
    },
    {
      "inputs": [
        {
          "internalType": "uint256",
          "name": "shares",
          "type": "uint256"
        },
        {
          "internalType": "address",
          "name": "receiver",
          "type": "address"
        }
      ],
      "name": "mint",
      "outputs": [
        {
          "internalType": "uint256",
          "name": "",
          "type": "uint256"
        }
      ],
      "stateMutability": "nonpayable",
      "type": "function"
    },
    {
      "inputs": [],
      "name": "name",
      "outputs": [
        {
          "internalType": "string",
          "name": "",
          "type": "string"
        }
      ],
      "stateMutability": "view",
      "type": "function"
    },
    {
      "inputs": [],
      "name": "owner",
      "outputs": [
        {
          "internalType": "address",
          "name": "",
          "type": "address"
        }
      ],
      "stateMutability": "view",
      "type": "function"
    },
    {
      "inputs": [
        {
          "internalType": "uint256",
          "name": "assets",
          "type": "uint256"
        }
      ],
      "name": "previewDeposit",
      "outputs": [
        {
          "internalType": "uint256",
          "name": "",
          "type": "uint256"
        }
      ],
      "stateMutability": "view",
      "type": "function"
    },
    {
      "inputs": [
        {
          "internalType": "uint256",
          "name": "shares",
          "type": "uint256"
        }
      ],
      "name": "previewMint",
      "outputs": [
        {
          "internalType": "uint256",
          "name": "",
          "type": "uint256"
        }
      ],
      "stateMutability": "view",
      "type": "function"
    },
    {
      "inputs": [
        {
          "internalType": "uint256",
          "name": "shares",
          "type": "uint256"
        }
      ],
      "name": "previewRedeem",
      "outputs": [
        {
          "internalType": "uint256",
          "name": "",
          "type": "uint256"
        }
      ],
      "stateMutability": "view",
      "type": "function"
    },
    {
      "inputs": [
        {
          "internalType": "uint256",
          "name": "assets",
          "type": "uint256"
        }
      ],
      "name": "previewWithdraw",
      "outputs": [
        {
          "internalType": "uint256",
          "name": "",
          "type": "uint256"
        }
      ],
      "stateMutability": "view",
      "type": "function"
    },
    {
      "inputs": [
        {
          "internalType": "uint256",
          "name": "shares",
          "type": "uint256"
        },
        {
          "internalType": "address",
          "name": "receiver",
          "type": "address"
        },
        {
          "internalType": "address",
          "name": "owner",
          "type": "address"
        }
      ],
      "name": "redeem",
      "outputs": [
        {
          "internalType": "uint256",
          "name": "",
          "type": "uint256"
        }
      ],
      "stateMutability": "nonpayable",
      "type": "function"
    },
    {
      "inputs": [],
      "name": "renounceOwnership",
      "outputs": [],
      "stateMutability": "nonpayable",
      "type": "function"
    },
    {
      "inputs": [
        {
          "internalType": "uint256",
          "name": "newRate",
          "type": "uint256"
        }
      ],
      "name": "setInterestRate",
      "outputs": [],
      "stateMutability": "nonpayable",
      "type": "function"
    },
    {
      "inputs": [],
      "name": "symbol",
      "outputs": [
        {
          "internalType": "string",
          "name": "",
          "type": "string"
        }
      ],
      "stateMutability": "view",
      "type": "function"
    },
    {
      "inputs": [],
      "name": "totalAssets",
      "outputs": [
        {
          "internalType": "uint256",
          "name": "",
          "type": "uint256"
        }
      ],
      "stateMutability": "view",
      "type": "function"
    },
    {
      "inputs": [],
      "name": "totalSupply",
      "outputs": [
        {
          "internalType": "uint256",
          "name": "",
          "type": "uint256"
        }
      ],
      "stateMutability": "view",
      "type": "function"
    },
    {
      "inputs": [
        {
          "internalType": "address",
          "name": "to",
          "type": "address"
        },
        {
          "internalType": "uint256",
          "name": "value",
          "type": "uint256"
        }
      ],
      "name": "transfer",
      "outputs": [
        {
          "internalType": "bool",
          "name": "",
          "type": "bool"
        }
      ],
      "stateMutability": "nonpayable",
      "type": "function"
    },
    {
      "inputs": [
        {
          "internalType": "address",
          "name": "from",
          "type": "address"
        },
        {
          "internalType": "address",
          "name": "to",
          "type": "address"
        },
        {
          "internalType": "uint256",
          "name": "value",
          "type": "uint256"
        }
      ],
      "name": "transferFrom",
      "outputs": [
        {
          "internalType": "bool",
          "name": "",
          "type": "bool"
        }
      ],
      "stateMutability": "nonpayable",
      "type": "function"
    },
    {
      "inputs": [
        {
          "internalType": "address",
          "name": "newOwner",
          "type": "address"
        }
      ],
      "name": "transferOwnership",
      "outputs": [],
      "stateMutability": "nonpayable",
      "type": "function"
    },
    {
      "inputs": [
        {
          "internalType": "uint256",
          "name": "assets",
          "type": "uint256"
        },
        {
          "internalType": "address",
          "name": "receiver",
          "type": "address"
        },
        {
          "internalType": "address",
          "name": "owner",
          "type": "address"
        }
      ],
      "name": "withdraw",
      "outputs": [
        {
          "internalType": "uint256",
          "name": "",
          "type": "uint256"
        }
      ],
      "stateMutability": "nonpayable",
      "type": "function"
    }
  ],
  "bytecode": "0x60c06040526105dc60065534801561001657600080fd5b50604051612fb5380380612fb583398181016040528101906100389190610512565b33838383816003908161004b91906107be565b50806004908161005b91906107be565b5050506000806100708361015760201b60201c565b9150915081610080576012610082565b805b60ff1660a08160ff16815250508273ffffffffffffffffffffffffffffffffffffffff1660808173ffffffffffffffffffffffffffffffffffffffff1681525050505050600073ffffffffffffffffffffffffffffffffffffffff168173ffffffffffffffffffffffffffffffffffffffff16036101385760006040517f1e4fbdf700000000000000000000000000000000000000000000000000000000815260040161012f919061089f565b60405180910390fd5b6101478161026760201b60201c565b5042600781905550505050610971565b6000806000808473ffffffffffffffffffffffffffffffffffffffff1660405160240160405160208183030381529060405263313ce56760e01b6020820180517bffffffffffffffffffffffffffffffffffffffffffffffffffffffff83818316178352505050506040516101cc9190610901565b600060405180830381855afa9150503d8060008114610207576040519150601f19603f3d011682016040523d82523d6000602084013e61020c565b606091505b509150915081801561022057506020815110155b156102585760008180602001905181019061023b9190610944565b905060ff801681116102565760018194509450505050610262565b505b6000809350935050505b915091565b6000600560009054906101000a900473ffffffffffffffffffffffffffffffffffffffff16905081600560006101000a81548173ffffffffffffffffffffffffffffffffffffffff021916908373ffffffffffffffffffffffffffffffffffffffff1602179055508173ffffffffffffffffffffffffffffffffffffffff168173ffffffffffffffffffffffffffffffffffffffff167f8be0079c531659141344cd1fd0a4f28419497f9722a3daafe3b4186f6b6457e060405160405180910390a35050565b6000604051905090565b600080fd5b600080fd5b600073ffffffffffffffffffffffffffffffffffffffff82169050919050565b600061036c82610341565b9050919050565b600061037e82610361565b9050919050565b61038e81610373565b811461039957600080fd5b50565b6000815190506103ab81610385565b92915050565b600080fd5b600080fd5b6000601f19601f8301169050919050565b7f4e487b7100000000000000000000000000000000000000000000000000000000600052604160045260246000fd5b610404826103bb565b810181811067ffffffffffffffff82111715610423576104226103cc565b5b80604052505050565b600061043661032d565b905061044282826103fb565b919050565b600067ffffffffffffffff821115610462576104616103cc565b5b61046b826103bb565b9050602081019050919050565b60005b8381101561049657808201518184015260208101905061047b565b60008484015250505050565b60006104b56104b084610447565b61042c565b9050828152602081018484840111156104d1576104d06103b6565b5b6104dc848285610478565b509392505050565b600082601f8301126104f9576104f86103b1565b5b81516105098482602086016104a2565b91505092915050565b60008060006060848603121561052b5761052a610337565b5b60006105398682870161039c565b935050602084015167ffffffffffffffff81111561055a5761055961033c565b5b610566868287016104e4565b925050604084015167ffffffffffffffff8111156105875761058661033c565b5b610593868287016104e4565b9150509250925092565b600081519050919050565b7f4e487b7100000000000000000000000000000000000000000000000000000000600052602260045260246000fd5b600060028204905060018216806105ef57607f821691505b602082108103610602576106016105a8565b5b50919050565b60008190508160005260206000209050919050565b60006020601f8301049050919050565b600082821b905092915050565b60006008830261066a7fffffffffffffffffffffffffffffffffffffffffffffffffffffffffffffffff8261062d565b610674868361062d565b95508019841693508086168417925050509392505050565b6000819050919050565b6000819050919050565b60006106bb6106b66106b18461068c565b610696565b61068c565b9050919050565b6000819050919050565b6106d5836106a0565b6106e96106e1826106c2565b84845461063a565b825550505050565b600090565b6106fe6106f1565b6107098184846106cc565b505050565b5b8181101561072d576107226000826106f6565b60018101905061070f565b5050565b601f8211156107725761074381610608565b61074c8461061d565b8101602085101561075b578190505b61076f6107678561061d565b83018261070e565b50505b505050565b600082821c905092915050565b600061079560001984600802610777565b1980831691505092915050565b60006107ae8383610784565b9150826002028217905092915050565b6107c78261059d565b67ffffffffffffffff8111156107e0576107df6103cc565b5b6107ea82546105d7565b6107f5828285610731565b600060209050601f8311600181146108285760008415610816578287015190505b61082085826107a2565b865550610888565b601f19841661083686610608565b60005b8281101561085e57848901518255600182019150602085019450602081019050610839565b8683101561087b5784890151610877601f891682610784565b8355505b6001600288020188555050505b505050505050565b61089981610361565b82525050565b60006020820190506108b46000830184610890565b92915050565b600081519050919050565b600081905092915050565b60006108db826108ba565b6108e581856108c5565b93506108f5818560208601610478565b80840191505092915050565b600061090d82846108d0565b915081905092915050565b6109218161068c565b811461092c57600080fd5b50565b60008151905061093e81610918565b92915050565b60006020828403121561095a57610959610337565b5b60006109688482850161092f565b91505092915050565b60805160a05161260a6109ab60003960006108cb01526000818161070c015281816108fd015281816112b70152611469015261260a6000f3fe608060405234801561001057600080fd5b50600436106101fb5760003560e01c806374b521421161011a578063b460af94116100ad578063ce96cb771161007c578063ce96cb771461062c578063d905777e1461065c578063dd62ed3e1461068c578063ef8b30f7146106bc578063f2fde38b146106ec576101fb565b8063b460af941461056c578063ba0876521461059c578063c63d75b6146105cc578063c6e6f592146105fc576101fb565b806395d89b41116100e957806395d89b41146104e4578063a6afed9514610502578063a9059cbb1461050c578063b3d7f6b91461053c576101fb565b806374b521421461045a5780637c3a00fd146104785780638da5cb5b1461049657806394bf804d146104b4576101fb565b806338d52e0f116101925780635f84f302116101615780635f84f302146103d45780636e553f65146103f057806370a0823114610420578063715018a614610450576101fb565b806338d52e0f14610338578063402d267d146103565780634cdad506146103865780635257b566146103b6576101fb565b80630a28a477116101ce5780630a28a4771461029c57806318160ddd146102cc57806323b872dd146102ea578063313ce5671461031a576101fb565b806301e1d1141461020057806306fdde031461021e57806307a2d13a1461023c578063095ea7b31461026c575b600080fd5b610208610708565b6040516102159190611d73565b60405180910390f35b6102266107a9565b6040516102339190611e1e565b60405180910390f35b61025660048036038101906102519190611e71565b61083b565b6040516102639190611d73565b60405180910390f35b61028660048036038101906102819190611efc565b61084f565b6040516102939190611f57565b60405180910390f35b6102b660048036038101906102b19190611e71565b610872565b6040516102c39190611d73565b60405180910390f35b6102d4610886565b6040516102e19190611d73565b60405180910390f35b61030460048036038101906102ff9190611f72565b610890565b6040516103119190611f57565b60405180910390f35b6103226108bf565b60405161032f9190611fe1565b60405180910390f35b6103406108f9565b60405161034d919061200b565b60405180910390f35b610370600480360381019061036b9190612026565b610921565b60405161037d9190611d73565b60405180910390f35b6103a0600480360381019061039b9190611e71565b61094b565b6040516103ad9190611d73565b60405180910390f35b6103be61095f565b6040516103cb9190611d73565b60405180910390f35b6103ee60048036038101906103e99190611e71565b610969565b005b61040a60048036038101906104059190612053565b61097b565b6040516104179190611d73565b60405180910390f35b61043a60048036038101906104359190612026565b6109fd565b6040516104479190611d73565b60405180910390f35b610458610a45565b005b610462610a59565b60405161046f9190611d73565b60405180910390f35b610480610a5f565b60405161048d9190611d73565b60405180910390f35b61049e610a65565b6040516104ab919061200b565b60405180910390f35b6104ce60048036038101906104c99190612053565b610a8f565b6040516104db9190611d73565b60405180910390f35b6104ec610b11565b6040516104f99190611e1e565b60405180910390f35b61050a610ba3565b005b61052660048036038101906105219190611efc565b610d05565b6040516105339190611f57565b60405180910390f35b61055660048036038101906105519190611e71565b610d28565b6040516105639190611d73565b60405180910390f35b61058660048036038101906105819190612093565b610d3c565b6040516105939190611d73565b60405180910390f35b6105b660048036038101906105b19190612093565b610dc0565b6040516105c39190611d73565b60405180910390f35b6105e660048036038101906105e19190612026565b610e44565b6040516105f39190611d73565b60405180910390f35b61061660048036038101906106119190611e71565b610e6e565b6040516106239190611d73565b60405180910390f35b61064660048036038101906106419190612026565b610e82565b6040516106539190611d73565b60405180910390f35b61067660048036038101906106719190612026565b610e9e565b6040516106839190611d73565b60405180910390f35b6106a660048036038101906106a191906120e6565b610eb0565b6040516106b39190611d73565b60405180910390f35b6106d660048036038101906106d19190611e71565b610f37565b6040516106e39190611d73565b60405180910390f35b61070660048036038101906107019190612026565b610f4b565b005b60007f000000000000000000000000000000000000000000000000000000000000000073ffffffffffffffffffffffffffffffffffffffff166370a08231306040518263ffffffff1660e01b8152600401610763919061200b565b602060405180830381865afa158015610780573d6000803e3d6000fd5b505050506040513d601f19601f820116820180604052508101906107a4919061213b565b905090565b6060600380546107b890612197565b80601f01602080910402602001604051908101604052809291908181526020018280546107e490612197565b80156108315780601f1061080657610100808354040283529160200191610831565b820191906000526020600020905b81548152906001019060200180831161081457829003601f168201915b5050505050905090565b6000610848826000610fd1565b9050919050565b60008061085a61102a565b9050610867818585611032565b600191505092915050565b600061087f826001611044565b9050919050565b6000600254905090565b60008061089b61102a565b90506108a885828561109d565b6108b3858585611132565b60019150509392505050565b60006108c9611226565b7f00000000000000000000000000000000000000000000000000000000000000006108f491906121f7565b905090565b60007f0000000000000000000000000000000000000000000000000000000000000000905090565b60007fffffffffffffffffffffffffffffffffffffffffffffffffffffffffffffffff9050919050565b6000610958826000610fd1565b9050919050565b6000600654905090565b61097161122b565b8060068190555050565b60008061098783610921565b9050808411156109d2578284826040517f79012fb20000000000000000000000000000000000000000000000000000000081526004016109c99392919061222c565b60405180910390fd5b60006109dd85610f37565b90506109f26109ea61102a565b8587846112b2565b809250505092915050565b60008060008373ffffffffffffffffffffffffffffffffffffffff1673ffffffffffffffffffffffffffffffffffffffff168152602001908152602001600020549050919050565b610a4d61122b565b610a576000611355565b565b60075481565b60065481565b6000600560009054906101000a900473ffffffffffffffffffffffffffffffffffffffff16905090565b600080610a9b83610e44565b905080841115610ae6578284826040517f284ff667000000000000000000000000000000000000000000000000000000008152600401610add9392919061222c565b60405180910390fd5b6000610af185610d28565b9050610b06610afe61102a565b8583886112b2565b809250505092915050565b606060048054610b2090612197565b80601f0160208091040260200160405190810160405280929190818152602001828054610b4c90612197565b8015610b995780601f10610b6e57610100808354040283529160200191610b99565b820191906000526020600020905b815481529060010190602001808311610b7c57829003601f168201915b5050505050905090565b600060075442610bb39190612263565b90506000811115610d02576000610bc86108f9565b73ffffffffffffffffffffffffffffffffffffffff166370a08231306040518263ffffffff1660e01b8152600401610c00919061200b565b602060405180830381865afa158015610c1d573d6000803e3d6000fd5b505050506040513d601f19601f82011682018060405250810190610c41919061213b565b90506000811115610cf957600064496cebb8008360065484610c639190612297565b610c6d9190612297565b610c779190612308565b90506000811115610cf757610c8a6108f9565b73ffffffffffffffffffffffffffffffffffffffff166340c10f1930836040518363ffffffff1660e01b8152600401610cc4929190612339565b600060405180830381600087803b158015610cde57600080fd5b505af1158015610cf2573d6000803e3d6000fd5b505050505b505b42600781905550505b50565b600080610d1061102a565b9050610d1d818585611132565b600191505092915050565b6000610d35826001610fd1565b9050919050565b600080610d4883610e82565b905080851115610d93578285826040517ffe9cceec000000000000000000000000000000000000000000000000000000008152600401610d8a9392919061222c565b60405180910390fd5b6000610d9e86610872565b9050610db4610dab61102a565b8686898561141b565b80925050509392505050565b600080610dcc83610e9e565b905080851115610e17578285826040517fb94abeec000000000000000000000000000000000000000000000000000000008152600401610e0e9392919061222c565b60405180910390fd5b6000610e228661094b565b9050610e38610e2f61102a565b8686848a61141b565b80925050509392505050565b60007fffffffffffffffffffffffffffffffffffffffffffffffffffffffffffffffff9050919050565b6000610e7b826000611044565b9050919050565b6000610e97610e90836109fd565b6000610fd1565b9050919050565b6000610ea9826109fd565b9050919050565b6000600160008473ffffffffffffffffffffffffffffffffffffffff1673ffffffffffffffffffffffffffffffffffffffff16815260200190815260200160002060008373ffffffffffffffffffffffffffffffffffffffff1673ffffffffffffffffffffffffffffffffffffffff16815260200190815260200160002054905092915050565b6000610f44826000611044565b9050919050565b610f5361122b565b600073ffffffffffffffffffffffffffffffffffffffff168173ffffffffffffffffffffffffffffffffffffffff1603610fc55760006040517f1e4fbdf7000000000000000000000000000000000000000000000000000000008152600401610fbc919061200b565b60405180910390fd5b610fce81611355565b50565b60006110226001610fe0610708565b610fea9190612362565b610ff2611226565b600a610ffe91906124c9565b611006610886565b6110109190612362565b8486611514909392919063ffffffff16565b905092915050565b600033905090565b61103f8383836001611563565b505050565b6000611095611051611226565b600a61105d91906124c9565b611065610886565b61106f9190612362565b6001611079610708565b6110839190612362565b8486611514909392919063ffffffff16565b905092915050565b60006110a98484610eb0565b90507fffffffffffffffffffffffffffffffffffffffffffffffffffffffffffffffff81101561112c578181101561111c578281836040517ffb8f41b20000000000000000000000000000000000000000000000000000000081526004016111139392919061222c565b60405180910390fd5b61112b84848484036000611563565b5b50505050565b600073ffffffffffffffffffffffffffffffffffffffff168373ffffffffffffffffffffffffffffffffffffffff16036111a45760006040517f96c6fd1e00000000000000000000000000000000000000000000000000000000815260040161119b919061200b565b60405180910390fd5b600073ffffffffffffffffffffffffffffffffffffffff168273ffffffffffffffffffffffffffffffffffffffff16036112165760006040517fec442f0500000000000000000000000000000000000000000000000000000000815260040161120d919061200b565b60405180910390fd5b61122183838361173a565b505050565b600090565b61123361102a565b73ffffffffffffffffffffffffffffffffffffffff16611251610a65565b73ffffffffffffffffffffffffffffffffffffffff16146112b05761127461102a565b6040517f118cdaa70000000000000000000000000000000000000000000000000000000081526004016112a7919061200b565b60405180910390fd5b565b6112de7f000000000000000000000000000000000000000000000000000000000000000085308561195f565b6112e883826119e1565b8273ffffffffffffffffffffffffffffffffffffffff168473ffffffffffffffffffffffffffffffffffffffff167fdcbc1c05240f31ff3ad067ef1ee35ce4997762752e3a095284754544f4c709d78484604051611347929190612514565b60405180910390a350505050565b6000600560009054906101000a900473ffffffffffffffffffffffffffffffffffffffff16905081600560006101000a81548173ffffffffffffffffffffffffffffffffffffffff021916908373ffffffffffffffffffffffffffffffffffffffff1602179055508173ffffffffffffffffffffffffffffffffffffffff168173ffffffffffffffffffffffffffffffffffffffff167f8be0079c531659141344cd1fd0a4f28419497f9722a3daafe3b4186f6b6457e060405160405180910390a35050565b8273ffffffffffffffffffffffffffffffffffffffff168573ffffffffffffffffffffffffffffffffffffffff161461145a5761145983868361109d565b5b6114648382611a63565b61148f7f00000000000000000000000000000000000000000000000000000000000000008584611ae5565b8273ffffffffffffffffffffffffffffffffffffffff168473ffffffffffffffffffffffffffffffffffffffff168673ffffffffffffffffffffffffffffffffffffffff167ffbde797d201c681b91056529119e0b02407c7bb96a4a2c75c01fc9667232c8db8585604051611505929190612514565b60405180910390a45050505050565b600061154461152283611b64565b801561153f57506000848061153a576115396122d9565b5b868809115b611b92565b61154f868686611b9e565b6115599190612362565b9050949350505050565b600073ffffffffffffffffffffffffffffffffffffffff168473ffffffffffffffffffffffffffffffffffffffff16036115d55760006040517fe602df050000000000000000000000000000000000000000000000000000000081526004016115cc919061200b565b60405180910390fd5b600073ffffffffffffffffffffffffffffffffffffffff168373ffffffffffffffffffffffffffffffffffffffff16036116475760006040517f94280d6200000000000000000000000000000000000000000000000000000000815260040161163e919061200b565b60405180910390fd5b81600160008673ffffffffffffffffffffffffffffffffffffffff1673ffffffffffffffffffffffffffffffffffffffff16815260200190815260200160002060008573ffffffffffffffffffffffffffffffffffffffff1673ffffffffffffffffffffffffffffffffffffffff168152602001908152602001600020819055508015611734578273ffffffffffffffffffffffffffffffffffffffff168473ffffffffffffffffffffffffffffffffffffffff167f8c5be1e5ebec7d5bd14f71427d1e84f3dd0314c0f7b2291e5b200ac8c7c3b9258460405161172b9190611d73565b60405180910390a35b50505050565b600073ffffffffffffffffffffffffffffffffffffffff168373ffffffffffffffffffffffffffffffffffffffff160361178c5780600260008282546117809190612362565b9250508190555061185f565b60008060008573ffffffffffffffffffffffffffffffffffffffff1673ffffffffffffffffffffffffffffffffffffffff16815260200190815260200160002054905081811015611818578381836040517fe450d38c00000000000000000000000000000000000000000000000000000000815260040161180f9392919061222c565b60405180910390fd5b8181036000808673ffffffffffffffffffffffffffffffffffffffff1673ffffffffffffffffffffffffffffffffffffffff16815260200190815260200160002081905550505b600073ffffffffffffffffffffffffffffffffffffffff168273ffffffffffffffffffffffffffffffffffffffff16036118a857806002600082825403925050819055506118f5565b806000808473ffffffffffffffffffffffffffffffffffffffff1673ffffffffffffffffffffffffffffffffffffffff168152602001908152602001600020600082825401925050819055505b8173ffffffffffffffffffffffffffffffffffffffff168373ffffffffffffffffffffffffffffffffffffffff167fddf252ad1be2c89b69c2b068fc378daa952ba7f163c4a11628f55a4df523b3ef836040516119529190611d73565b60405180910390a3505050565b6119db848573ffffffffffffffffffffffffffffffffffffffff166323b872dd8686866040516024016119949392919061253d565b604051602081830303815290604052915060e01b6020820180517bffffffffffffffffffffffffffffffffffffffffffffffffffffffff8381831617835250505050611c8c565b50505050565b600073ffffffffffffffffffffffffffffffffffffffff168273ffffffffffffffffffffffffffffffffffffffff1603611a535760006040517fec442f05000000000000000000000000000000000000000000000000000000008152600401611a4a919061200b565b60405180910390fd5b611a5f6000838361173a565b5050565b600073ffffffffffffffffffffffffffffffffffffffff168273ffffffffffffffffffffffffffffffffffffffff1603611ad55760006040517f96c6fd1e000000000000000000000000000000000000000000000000000000008152600401611acc919061200b565b60405180910390fd5b611ae18260008361173a565b5050565b611b5f838473ffffffffffffffffffffffffffffffffffffffff1663a9059cbb8585604051602401611b18929190612339565b604051602081830303815290604052915060e01b6020820180517bffffffffffffffffffffffffffffffffffffffffffffffffffffffff8381831617835250505050611c8c565b505050565b600060016002836003811115611b7d57611b7c612574565b5b611b8791906125a3565b60ff16149050919050565b60008115159050919050565b6000808385029050600080198587098281108382030391505060008103611bd957838281611bcf57611bce6122d9565b5b0492505050611c85565b808411611bf957611bf8611bf36000861460126011611d2e565b611d48565b5b600084868809905082811182039150808303925060008560000386169050808604955080840493506001818260000304019050808302841793506000600287600302189050808702600203810290508087026002038102905080870260020381029050808702600203810290508087026002038102905080870260020381029050808502955050505050505b9392505050565b600080602060008451602086016000885af180611caf576040513d6000823e3d81fd5b3d925060005191505060008214611cca576001811415611ce6565b60008473ffffffffffffffffffffffffffffffffffffffff163b145b15611d2857836040517f5274afe7000000000000000000000000000000000000000000000000000000008152600401611d1f919061200b565b60405180910390fd5b50505050565b6000611d3984611b92565b82841802821890509392505050565b634e487b71600052806020526024601cfd5b6000819050919050565b611d6d81611d5a565b82525050565b6000602082019050611d886000830184611d64565b92915050565b600081519050919050565b600082825260208201905092915050565b60005b83811015611dc8578082015181840152602081019050611dad565b60008484015250505050565b6000601f19601f8301169050919050565b6000611df082611d8e565b611dfa8185611d99565b9350611e0a818560208601611daa565b611e1381611dd4565b840191505092915050565b60006020820190508181036000830152611e388184611de5565b905092915050565b600080fd5b611e4e81611d5a565b8114611e5957600080fd5b50565b600081359050611e6b81611e45565b92915050565b600060208284031215611e8757611e86611e40565b5b6000611e9584828501611e5c565b91505092915050565b600073ffffffffffffffffffffffffffffffffffffffff82169050919050565b6000611ec982611e9e565b9050919050565b611ed981611ebe565b8114611ee457600080fd5b50565b600081359050611ef681611ed0565b92915050565b60008060408385031215611f1357611f12611e40565b5b6000611f2185828601611ee7565b9250506020611f3285828601611e5c565b9150509250929050565b60008115159050919050565b611f5181611f3c565b82525050565b6000602082019050611f6c6000830184611f48565b92915050565b600080600060608486031215611f8b57611f8a611e40565b5b6000611f9986828701611ee7565b9350506020611faa86828701611ee7565b9250506040611fbb86828701611e5c565b9150509250925092565b600060ff82169050919050565b611fdb81611fc5565b82525050565b6000602082019050611ff66000830184611fd2565b92915050565b61200581611ebe565b82525050565b60006020820190506120206000830184611ffc565b92915050565b60006020828403121561203c5761203b611e40565b5b600061204a84828501611ee7565b91505092915050565b6000806040838503121561206a57612069611e40565b5b600061207885828601611e5c565b925050602061208985828601611ee7565b9150509250929050565b6000806000606084860312156120ac576120ab611e40565b5b60006120ba86828701611e5c565b93505060206120cb86828701611ee7565b92505060406120dc86828701611ee7565b9150509250925092565b600080604083850312156120fd576120fc611e40565b5b600061210b85828601611ee7565b925050602061211c85828601611ee7565b9150509250929050565b60008151905061213581611e45565b92915050565b60006020828403121561215157612150611e40565b5b600061215f84828501612126565b91505092915050565b7f4e487b7100000000000000000000000000000000000000000000000000000000600052602260045260246000fd5b600060028204905060018216806121af57607f821691505b6020821081036121c2576121c1612168565b5b50919050565b7f4e487b7100000000000000000000000000000000000000000000000000000000600052601160045260246000fd5b600061220282611fc5565b915061220d83611fc5565b9250828201905060ff811115612226576122256121c8565b5b92915050565b60006060820190506122416000830186611ffc565b61224e6020830185611d64565b61225b6040830184611d64565b949350505050565b600061226e82611d5a565b915061227983611d5a565b9250828203905081811115612291576122906121c8565b5b92915050565b60006122a282611d5a565b91506122ad83611d5a565b92508282026122bb81611d5a565b915082820484148315176122d2576122d16121c8565b5b5092915050565b7f4e487b7100000000000000000000000000000000000000000000000000000000600052601260045260246000fd5b600061231382611d5a565b915061231e83611d5a565b92508261232e5761232d6122d9565b5b828204905092915050565b600060408201905061234e6000830185611ffc565b61235b6020830184611d64565b9392505050565b600061236d82611d5a565b915061237883611d5a565b92508282019050808211156123905761238f6121c8565b5b92915050565b60008160011c9050919050565b6000808291508390505b60018511156123ed578086048111156123c9576123c86121c8565b5b60018516156123d85780820291505b80810290506123e685612396565b94506123ad565b94509492505050565b60008261240657600190506124c2565b8161241457600090506124c2565b816001811461242a576002811461243457612463565b60019150506124c2565b60ff841115612446576124456121c8565b5b8360020a91508482111561245d5761245c6121c8565b5b506124c2565b5060208310610133831016604e8410600b84101617156124985782820a905083811115612493576124926121c8565b5b6124c2565b6124a584848460016123a3565b925090508184048111156124bc576124bb6121c8565b5b81810290505b9392505050565b60006124d482611d5a565b91506124df83611fc5565b925061250c7fffffffffffffffffffffffffffffffffffffffffffffffffffffffffffffffff84846123f6565b905092915050565b60006040820190506125296000830185611d64565b6125366020830184611d64565b9392505050565b60006060820190506125526000830186611ffc565b61255f6020830185611ffc565b61256c6040830184611d64565b949350505050565b7f4e487b7100000000000000000000000000000000000000000000000000000000600052602160045260246000fd5b60006125ae82611fc5565b91506125b983611fc5565b9250826125c9576125c86122d9565b5b82820690509291505056fea264697066735822122041b840a46f1f8bc0f1903e1fec9f301d2a5a50d23eedcf0baba2564f59367ca764736f6c634300081c0033",
  "linkReferences": {},
  "deployedLinkReferences": {}
}