{
  "_format": "hh-sol-artifact-1",
  "contractName": "aToken",
  "sourceName": "contracts/aToken.sol",
  "abi": [
    {
      "inputs": [
        {
          "internalType": "contract IERC20",
          "name": "asset",
          "type": "address"
        },
        {
          "internalType": "string",
          "name": "name",
          "type": "string"
        },
        {
          "internalType": "string",
          "name": "symbol",
          "type": "string"
        }
      ],
      "stateMutability": "nonpayable",
      "type": "constructor"
    },
    {
      "inputs": [
        {
          "internalType": "address",
          "name": "spender",
          "type": "address"
        },
        {
          "internalType": "uint256",
          "name": "allowance",
          "type": "uint256"
        },
        {
          "internalType": "uint256",
          "name": "needed",
          "type": "uint256"
        }
      ],
      "name": "ERC20InsufficientAllowance",
      "type": "error"
    },
    {
      "inputs": [
        {
          "internalType": "address",
          "name": "sender",
          "type": "address"
        },
        {
          "internalType": "uint256",
          "name": "balance",
          "type": "uint256"
        },
        {
          "internalType": "uint256",
          "name": "needed",
          "type": "uint256"
        }
      ],
      "name": "ERC20InsufficientBalance",
      "type": "error"
    },
    {
      "inputs": [
        {
          "internalType": "address",
          "name": "approver",
          "type": "address"
        }
      ],
      "name": "ERC20InvalidApprover",
      "type": "error"
    },
    {
      "inputs": [
        {
          "internalType": "address",
          "name": "receiver",
          "type": "address"
        }
      ],
      "name": "ERC20InvalidReceiver",
      "type": "error"
    },
    {
      "inputs": [
        {
          "internalType": "address",
          "name": "sender",
          "type": "address"
        }
      ],
      "name": "ERC20InvalidSender",
      "type": "error"
    },
    {
      "inputs": [
        {
          "internalType": "address",
          "name": "spender",
          "type": "address"
        }
      ],
      "name": "ERC20InvalidSpender",
      "type": "error"
    },
    {
      "inputs": [
        {
          "internalType": "address",
          "name": "receiver",
          "type": "address"
        },
        {
          "internalType": "uint256",
          "name": "assets",
          "type": "uint256"
        },
        {
          "internalType": "uint256",
          "name": "max",
          "type": "uint256"
        }
      ],
      "name": "ERC4626ExceededMaxDeposit",
      "type": "error"
    },
    {
      "inputs": [
        {
          "internalType": "address",
          "name": "receiver",
          "type": "address"
        },
        {
          "internalType": "uint256",
          "name": "shares",
          "type": "uint256"
        },
        {
          "internalType": "uint256",
          "name": "max",
          "type": "uint256"
        }
      ],
      "name": "ERC4626ExceededMaxMint",
      "type": "error"
    },
    {
      "inputs": [
        {
          "internalType": "address",
          "name": "owner",
          "type": "address"
        },
        {
          "internalType": "uint256",
          "name": "shares",
          "type": "uint256"
        },
        {
          "internalType": "uint256",
          "name": "max",
          "type": "uint256"
        }
      ],
      "name": "ERC4626ExceededMaxRedeem",
      "type": "error"
    },
    {
      "inputs": [
        {
          "internalType": "address",
          "name": "owner",
          "type": "address"
        },
        {
          "internalType": "uint256",
          "name": "assets",
          "type": "uint256"
        },
        {
          "internalType": "uint256",
          "name": "max",
          "type": "uint256"
        }
      ],
      "name": "ERC4626ExceededMaxWithdraw",
      "type": "error"
    },
    {
      "inputs": [
        {
          "internalType": "address",
          "name": "owner",
          "type": "address"
        }
      ],
      "name": "OwnableInvalidOwner",
      "type": "error"
    },
    {
      "inputs": [
        {
          "internalType": "address",
          "name": "account",
          "type": "address"
        }
      ],
      "name": "OwnableUnauthorizedAccount",
      "type": "error"
    },
    {
      "inputs": [
        {
          "internalType": "address",
          "name": "token",
          "type": "address"
        }
      ],
      "name": "SafeERC20FailedOperation",
      "type": "error"
    },
    {
      "anonymous": false,
      "inputs": [
        {
          "indexed": true,
          "internalType": "address",
          "name": "owner",
          "type": "address"
        },
        {
          "indexed": true,
          "internalType": "address",
          "name": "spender",
          "type": "address"
        },
        {
          "indexed": false,
          "internalType": "uint256",
          "name": "value",
          "type": "uint256"
        }
      ],
      "name": "Approval",
      "type": "event"
    },
    {
      "anonymous": false,
      "inputs": [
        {
          "indexed": true,
          "internalType": "address",
          "name": "sender",
          "type": "address"
        },
        {
          "indexed": true,
          "internalType": "address",
          "name": "owner",
          "type": "address"
        },
        {
          "indexed": false,
          "internalType": "uint256",
          "name": "assets",
          "type": "uint256"
        },
        {
          "indexed": false,
          "internalType": "uint256",
          "name": "shares",
          "type": "uint256"
        }
      ],
      "name": "Deposit",
      "type": "event"
    },
    {
      "anonymous": false,
      "inputs": [
        {
          "indexed": true,
          "internalType": "address",
          "name": "previousOwner",
          "type": "address"
        },
        {
          "indexed": true,
          "internalType": "address",
          "name": "newOwner",
          "type": "address"
        }
      ],
      "name": "OwnershipTransferred",
      "type": "event"
    },
    {
      "anonymous": false,
      "inputs": [
        {
          "indexed": true,
          "internalType": "address",
          "name": "from",
          "type": "address"
        },
        {
          "indexed": true,
          "internalType": "address",
          "name": "to",
          "type": "address"
        },
        {
          "indexed": false,
          "internalType": "uint256",
          "name": "value",
          "type": "uint256"
        }
      ],
      "name": "Transfer",
      "type": "event"
    },
    {
      "anonymous": false,
      "inputs": [
        {
          "indexed": true,
          "internalType": "address",
          "name": "sender",
          "type": "address"
        },
        {
          "indexed": true,
          "internalType": "address",
          "name": "receiver",
          "type": "address"
        },
        {
          "indexed": true,
          "internalType": "address",
          "name": "owner",
          "type": "address"
        },
        {
          "indexed": false,
          "internalType": "uint256",
          "name": "assets",
          "type": "uint256"
        },
        {
          "indexed": false,
          "internalType": "uint256",
          "name": "shares",
          "type": "uint256"
        }
      ],
      "name": "Withdraw",
      "type": "event"
    },
    {
      "inputs": [],
      "name": "accrueInterest",
      "outputs": [],
      "stateMutability": "nonpayable",
      "type": "function"
    },
    {
      "inputs": [
        {
          "internalType": "address",
          "name": "owner",
          "type": "address"
        },
        {
          "internalType": "address",
          "name": "spender",
          "type": "address"
        }
      ],
      "name": "allowance",
      "outputs": [
        {
          "internalType": "uint256",
          "name": "",
          "type": "uint256"
        }
      ],
      "stateMutability": "view",
      "type": "function"
    },
    {
      "inputs": [
        {
          "internalType": "address",
          "name": "spender",
          "type": "address"
        },
        {
          "internalType": "uint256",
          "name": "value",
          "type": "uint256"
        }
      ],
      "name": "approve",
      "outputs": [
        {
          "internalType": "bool",
          "name": "",
          "type": "bool"
        }
      ],
      "stateMutability": "nonpayable",
      "type": "function"
    },
    {
      "inputs": [],
      "name": "asset",
      "outputs": [
        {
          "internalType": "address",
          "name": "",
          "type": "address"
        }
      ],
      "stateMutability": "view",
      "type": "function"
    },
    {
      "inputs": [
        {
          "internalType": "address",
          "name": "account",
          "type": "address"
        }
      ],
      "name": "balanceOf",
      "outputs": [
        {
          "internalType": "uint256",
          "name": "",
          "type": "uint256"
        }
      ],
      "stateMutability": "view",
      "type": "function"
    },
    {
      "inputs": [
        {
          "internalType": "uint256",
          "name": "shares",
          "type": "uint256"
        }
      ],
      "name": "convertToAssets",
      "outputs": [
        {
          "internalType": "uint256",
          "name": "",
          "type": "uint256"
        }
      ],
      "stateMutability": "view",
      "type": "function"
    },
    {
      "inputs": [
        {
          "internalType": "uint256",
          "name": "assets",
          "type": "uint256"
        }
      ],
      "name": "convertToShares",
      "outputs": [
        {
          "internalType": "uint256",
          "name": "",
          "type": "uint256"
        }
      ],
      "stateMutability": "view",
      "type": "function"
    },
    {
      "inputs": [],
      "name": "decimals",
      "outputs": [
        {
          "internalType": "uint8",
          "name": "",
          "type": "uint8"
        }
      ],
      "stateMutability": "view",
      "type": "function"
    },
    {
      "inputs": [
        {
          "internalType": "uint256",
          "name": "assets",
          "type": "uint256"
        },
        {
          "internalType": "address",
          "name": "receiver",
          "type": "address"
        }
      ],
      "name": "deposit",
      "outputs": [
        {
          "internalType": "uint256",
          "name": "",
          "type": "uint256"
        }
      ],
      "stateMutability": "nonpayable",
      "type": "function"
    },
    {
      "inputs": [],
      "name": "getInterestRate",
      "outputs": [
        {
          "internalType": "uint256",
          "name": "",
          "type": "uint256"
        }
      ],
      "stateMutability": "view",
      "type": "function"
    },
    {
      "inputs": [],
      "name": "interestRate",
      "outputs": [
        {
          "internalType": "uint256",
          "name": "",
          "type": "uint256"
        }
      ],
      "stateMutability": "view",
      "type": "function"
    },
    {
      "inputs": [],
      "name": "lastInterestUpdate",
      "outputs": [
        {
          "internalType": "uint256",
          "name": "",
          "type": "uint256"
        }
      ],
      "stateMutability": "view",
      "type": "function"
    },
    {
      "inputs": [
        {
          "internalType": "address",
          "name": "",
          "type": "address"
        }
      ],
      "name": "maxDeposit",
      "outputs": [
        {
          "internalType": "uint256",
          "name": "",
          "type": "uint256"
        }
      ],
      "stateMutability": "view",
      "type": "function"
    },
    {
      "inputs": [
        {
          "internalType": "address",
          "name": "",
          "type": "address"
        }
      ],
      "name": "maxMint",
      "outputs": [
        {
          "internalType": "uint256",
          "name": "",
          "type": "uint256"
        }
      ],
      "stateMutability": "view",
      "type": "function"
    },
    {
      "inputs": [
        {
          "internalType": "address",
          "name": "owner",
          "type": "address"
        }
      ],
      "name": "maxRedeem",
      "outputs": [
        {
          "internalType": "uint256",
          "name": "",
          "type": "uint256"
        }
      ],
      "stateMutability": "view",
      "type": "function"
    },
    {
      "inputs": [
        {
          "internalType": "address",
          "name": "owner",
          "type": "address"
        }
      ],
      "name": "maxWithdraw",
      "outputs": [
        {
          "internalType": "uint256",
          "name": "",
          "type": "uint256"
        }
      ],
      "stateMutability": "view",
      "type": "function"
    },
    {
      "inputs": [
        {
          "internalType": "uint256",
          "name": "shares",
          "type": "uint256"
        },
        {
          "internalType": "address",
          "name": "receiver",
          "type": "address"
        }
      ],
      "name": "mint",
      "outputs": [
        {
          "internalType": "uint256",
          "name": "",
          "type": "uint256"
        }
      ],
      "stateMutability": "nonpayable",
      "type": "function"
    },
    {
      "inputs": [],
      "name": "name",
      "outputs": [
        {
          "internalType": "string",
          "name": "",
          "type": "string"
        }
      ],
      "stateMutability": "view",
      "type": "function"
    },
    {
      "inputs": [],
      "name": "owner",
      "outputs": [
        {
          "internalType": "address",
          "name": "",
          "type": "address"
        }
      ],
      "stateMutability": "view",
      "type": "function"
    },
    {
      "inputs": [
        {
          "internalType": "uint256",
          "name": "assets",
          "type": "uint256"
        }
      ],
      "name": "previewDeposit",
      "outputs": [
        {
          "internalType": "uint256",
          "name": "",
          "type": "uint256"
        }
      ],
      "stateMutability": "view",
      "type": "function"
    },
    {
      "inputs": [
        {
          "internalType": "uint256",
          "name": "shares",
          "type": "uint256"
        }
      ],
      "name": "previewMint",
      "outputs": [
        {
          "internalType": "uint256",
          "name": "",
          "type": "uint256"
        }
      ],
      "stateMutability": "view",
      "type": "function"
    },
    {
      "inputs": [
        {
          "internalType": "uint256",
          "name": "shares",
          "type": "uint256"
        }
      ],
      "name": "previewRedeem",
      "outputs": [
        {
          "internalType": "uint256",
          "name": "",
          "type": "uint256"
        }
      ],
      "stateMutability": "view",
      "type": "function"
    },
    {
      "inputs": [
        {
          "internalType": "uint256",
          "name": "assets",
          "type": "uint256"
        }
      ],
      "name": "previewWithdraw",
      "outputs": [
        {
          "internalType": "uint256",
          "name": "",
          "type": "uint256"
        }
      ],
      "stateMutability": "view",
      "type": "function"
    },
    {
      "inputs": [
        {
          "internalType": "uint256",
          "name": "shares",
          "type": "uint256"
        },
        {
          "internalType": "address",
          "name": "receiver",
          "type": "address"
        },
        {
          "internalType": "address",
          "name": "owner",
          "type": "address"
        }
      ],
      "name": "redeem",
      "outputs": [
        {
          "internalType": "uint256",
          "name": "",
          "type": "uint256"
        }
      ],
      "stateMutability": "nonpayable",
      "type": "function"
    },
    {
      "inputs": [],
      "name": "renounceOwnership",
      "outputs": [],
      "stateMutability": "nonpayable",
      "type": "function"
    },
    {
      "inputs": [
        {
          "internalType": "uint256",
          "name": "newRate",
          "type": "uint256"
        }
      ],
      "name": "setInterestRate",
      "outputs": [],
      "stateMutability": "nonpayable",
      "type": "function"
    },
    {
      "inputs": [],
      "name": "symbol",
      "outputs": [
        {
          "internalType": "string",
          "name": "",
          "type": "string"
        }
      ],
      "stateMutability": "view",
      "type": "function"
    },
    {
      "inputs": [],
      "name": "totalAssets",
      "outputs": [
        {
          "internalType": "uint256",
          "name": "",
          "type": "uint256"
        }
      ],
      "stateMutability": "view",
      "type": "function"
    },
    {
      "inputs": [],
      "name": "totalSupply",
      "outputs": [
        {
          "internalType": "uint256",
          "name": "",
          "type": "uint256"
        }
      ],
      "stateMutability": "view",
      "type": "function"
    },
    {
      "inputs": [
        {
          "internalType": "address",
          "name": "to",
          "type": "address"
        },
        {
          "internalType": "uint256",
          "name": "value",
          "type": "uint256"
        }
      ],
      "name": "transfer",
      "outputs": [
        {
          "internalType": "bool",
          "name": "",
          "type": "bool"
        }
      ],
      "stateMutability": "nonpayable",
      "type": "function"
    },
    {
      "inputs": [
        {
          "internalType": "address",
          "name": "from",
          "type": "address"
        },
        {
          "internalType": "address",
          "name": "to",
          "type": "address"
        },
        {
          "internalType": "uint256",
          "name": "value",
          "type": "uint256"
        }
      ],
      "name": "transferFrom",
      "outputs": [
        {
          "internalType": "bool",
          "name": "",
          "type": "bool"
        }
      ],
      "stateMutability": "nonpayable",
      "type": "function"
    },
    {
      "inputs": [
        {
          "internalType": "address",
          "name": "newOwner",
          "type": "address"
        }
      ],
      "name": "transferOwnership",
      "outputs": [],
      "stateMutability": "nonpayable",
      "type": "function"
    },
    {
      "inputs": [
        {
          "internalType": "uint256",
          "name": "assets",
          "type": "uint256"
        },
        {
          "internalType": "address",
          "name": "receiver",
          "type": "address"
        },
        {
          "internalType": "address",
          "name": "owner",
          "type": "address"
        }
      ],
      "name": "withdraw",
      "outputs": [
        {
          "internalType": "uint256",
          "name": "",
          "type": "uint256"
        }
      ],
      "stateMutability": "nonpayable",
      "type": "function"
    }
  ],
  "bytecode": "0x60c06040526105dc60065534801561001657600080fd5b50604051612fad380380612fad83398181016040528101906100389190610512565b33838383816003908161004b91906107be565b50806004908161005b91906107be565b5050506000806100708361015760201b60201c565b9150915081610080576012610082565b805b60ff1660a08160ff16815250508273ffffffffffffffffffffffffffffffffffffffff1660808173ffffffffffffffffffffffffffffffffffffffff1681525050505050600073ffffffffffffffffffffffffffffffffffffffff168173ffffffffffffffffffffffffffffffffffffffff16036101385760006040517f1e4fbdf700000000000000000000000000000000000000000000000000000000815260040161012f919061089f565b60405180910390fd5b6101478161026760201b60201c565b5042600781905550505050610971565b6000806000808473ffffffffffffffffffffffffffffffffffffffff1660405160240160405160208183030381529060405263313ce56760e01b6020820180517bffffffffffffffffffffffffffffffffffffffffffffffffffffffff83818316178352505050506040516101cc9190610901565b600060405180830381855afa9150503d8060008114610207576040519150601f19603f3d011682016040523d82523d6000602084013e61020c565b606091505b509150915081801561022057506020815110155b156102585760008180602001905181019061023b9190610944565b905060ff801681116102565760018194509450505050610262565b505b6000809350935050505b915091565b6000600560009054906101000a900473ffffffffffffffffffffffffffffffffffffffff16905081600560006101000a81548173ffffffffffffffffffffffffffffffffffffffff021916908373ffffffffffffffffffffffffffffffffffffffff1602179055508173ffffffffffffffffffffffffffffffffffffffff168173ffffffffffffffffffffffffffffffffffffffff167f8be0079c531659141344cd1fd0a4f28419497f9722a3daafe3b4186f6b6457e060405160405180910390a35050565b6000604051905090565b600080fd5b600080fd5b600073ffffffffffffffffffffffffffffffffffffffff82169050919050565b600061036c82610341565b9050919050565b600061037e82610361565b9050919050565b61038e81610373565b811461039957600080fd5b50565b6000815190506103ab81610385565b92915050565b600080fd5b600080fd5b6000601f19601f8301169050919050565b7f4e487b7100000000000000000000000000000000000000000000000000000000600052604160045260246000fd5b610404826103bb565b810181811067ffffffffffffffff82111715610423576104226103cc565b5b80604052505050565b600061043661032d565b905061044282826103fb565b919050565b600067ffffffffffffffff821115610462576104616103cc565b5b61046b826103bb565b9050602081019050919050565b60005b8381101561049657808201518184015260208101905061047b565b60008484015250505050565b60006104b56104b084610447565b61042c565b9050828152602081018484840111156104d1576104d06103b6565b5b6104dc848285610478565b509392505050565b600082601f8301126104f9576104f86103b1565b5b81516105098482602086016104a2565b91505092915050565b60008060006060848603121561052b5761052a610337565b5b60006105398682870161039c565b935050602084015167ffffffffffffffff81111561055a5761055961033c565b5b610566868287016104e4565b925050604084015167ffffffffffffffff8111156105875761058661033c565b5b610593868287016104e4565b9150509250925092565b600081519050919050565b7f4e487b7100000000000000000000000000000000000000000000000000000000600052602260045260246000fd5b600060028204905060018216806105ef57607f821691505b602082108103610602576106016105a8565b5b50919050565b60008190508160005260206000209050919050565b60006020601f8301049050919050565b600082821b905092915050565b60006008830261066a7fffffffffffffffffffffffffffffffffffffffffffffffffffffffffffffffff8261062d565b610674868361062d565b95508019841693508086168417925050509392505050565b6000819050919050565b6000819050919050565b60006106bb6106b66106b18461068c565b610696565b61068c565b9050919050565b6000819050919050565b6106d5836106a0565b6106e96106e1826106c2565b84845461063a565b825550505050565b600090565b6106fe6106f1565b6107098184846106cc565b505050565b5b8181101561072d576107226000826106f6565b60018101905061070f565b5050565b601f8211156107725761074381610608565b61074c8461061d565b8101602085101561075b578190505b61076f6107678561061d565b83018261070e565b50505b505050565b600082821c905092915050565b600061079560001984600802610777565b1980831691505092915050565b60006107ae8383610784565b9150826002028217905092915050565b6107c78261059d565b67ffffffffffffffff8111156107e0576107df6103cc565b5b6107ea82546105d7565b6107f5828285610731565b600060209050601f8311600181146108285760008415610816578287015190505b61082085826107a2565b865550610888565b601f19841661083686610608565b60005b8281101561085e57848901518255600182019150602085019450602081019050610839565b8683101561087b5784890151610877601f891682610784565b8355505b6001600288020188555050505b505050505050565b61089981610361565b82525050565b60006020820190506108b46000830184610890565b92915050565b600081519050919050565b600081905092915050565b60006108db826108ba565b6108e581856108c5565b93506108f5818560208601610478565b80840191505092915050565b600061090d82846108d0565b915081905092915050565b6109218161068c565b811461092c57600080fd5b50565b60008151905061093e81610918565b92915050565b60006020828403121561095a57610959610337565b5b60006109688482850161092f565b91505092915050565b60805160a0516126026109ab60003960006108cb01526000818161070c015281816108fd01528181611228015261146101526126026000f3fe608060405234801561001057600080fd5b50600436106101fb5760003560e01c806374b521421161011a578063b460af94116100ad578063ce96cb771161007c578063ce96cb771461062c578063d905777e1461065c578063dd62ed3e1461068c578063ef8b30f7146106bc578063f2fde38b146106ec576101fb565b8063b460af941461056c578063ba0876521461059c578063c63d75b6146105cc578063c6e6f592146105fc576101fb565b806395d89b41116100e957806395d89b41146104e4578063a6afed9514610502578063a9059cbb1461050c578063b3d7f6b91461053c576101fb565b806374b521421461045a5780637c3a00fd146104785780638da5cb5b1461049657806394bf804d146104b4576101fb565b806338d52e0f116101925780635f84f302116101615780635f84f302146103d45780636e553f65146103f057806370a0823114610420578063715018a614610450576101fb565b806338d52e0f14610338578063402d267d146103565780634cdad506146103865780635257b566146103b6576101fb565b80630a28a477116101ce5780630a28a4771461029c57806318160ddd146102cc57806323b872dd146102ea578063313ce5671461031a576101fb565b806301e1d1141461020057806306fdde031461021e57806307a2d13a1461023c578063095ea7b31461026c575b600080fd5b610208610708565b6040516102159190611d6b565b60405180910390f35b6102266107a9565b6040516102339190611e16565b60405180910390f35b61025660048036038101906102519190611e69565b61083b565b6040516102639190611d6b565b60405180910390f35b61028660048036038101906102819190611ef4565b61084f565b6040516102939190611f4f565b60405180910390f35b6102b660048036038101906102b19190611e69565b610872565b6040516102c39190611d6b565b60405180910390f35b6102d4610886565b6040516102e19190611d6b565b60405180910390f35b61030460048036038101906102ff9190611f6a565b610890565b6040516103119190611f4f565b60405180910390f35b6103226108bf565b60405161032f9190611fd9565b60405180910390f35b6103406108f9565b60405161034d9190612003565b60405180910390f35b610370600480360381019061036b919061201e565b610921565b60405161037d9190611d6b565b60405180910390f35b6103a0600480360381019061039b9190611e69565b61094b565b6040516103ad9190611d6b565b60405180910390f35b6103be61095f565b6040516103cb9190611d6b565b60405180910390f35b6103ee60048036038101906103e99190611e69565b610969565b005b61040a6004803603810190610405919061204b565b610973565b6040516104179190611d6b565b60405180910390f35b61043a6004803603810190610435919061201e565b6109f5565b6040516104479190611d6b565b60405180910390f35b610458610a3d565b005b610462610a51565b60405161046f9190611d6b565b60405180910390f35b610480610a57565b60405161048d9190611d6b565b60405180910390f35b61049e610a5d565b6040516104ab9190612003565b60405180910390f35b6104ce60048036038101906104c9919061204b565b610a87565b6040516104db9190611d6b565b60405180910390f35b6104ec610b09565b6040516104f99190611e16565b60405180910390f35b61050a610b9b565b005b61052660048036038101906105219190611ef4565b610cfd565b6040516105339190611f4f565b60405180910390f35b61055660048036038101906105519190611e69565b610d20565b6040516105639190611d6b565b60405180910390f35b6105866004803603810190610581919061208b565b610d34565b6040516105939190611d6b565b60405180910390f35b6105b660048036038101906105b1919061208b565b610db8565b6040516105c39190611d6b565b60405180910390f35b6105e660048036038101906105e1919061201e565b610e3c565b6040516105f39190611d6b565b60405180910390f35b61061660048036038101906106119190611e69565b610e66565b6040516106239190611d6b565b60405180910390f35b6106466004803603810190610641919061201e565b610e7a565b6040516106539190611d6b565b60405180910390f35b6106766004803603810190610671919061201e565b610e96565b6040516106839190611d6b565b60405180910390f35b6106a660048036038101906106a191906120de565b610ea8565b6040516106b39190611d6b565b60405180910390f35b6106d660048036038101906106d19190611e69565b610f2f565b6040516106e39190611d6b565b60405180910390f35b6107066004803603810190610701919061201e565b610f43565b005b60007f000000000000000000000000000000000000000000000000000000000000000073ffffffffffffffffffffffffffffffffffffffff166370a08231306040518263ffffffff1660e01b81526004016107639190612003565b602060405180830381865afa158015610780573d6000803e3d6000fd5b505050506040513d601f19601f820116820180604052508101906107a49190612133565b905090565b6060600380546107b89061218f565b80601f01602080910402602001604051908101604052809291908181526020018280546107e49061218f565b80156108315780601f1061080657610100808354040283529160200191610831565b820191906000526020600020905b81548152906001019060200180831161081457829003601f168201915b5050505050905090565b6000610848826000610fc9565b9050919050565b60008061085a611022565b905061086781858561102a565b600191505092915050565b600061087f82600161103c565b9050919050565b6000600254905090565b60008061089b611022565b90506108a8858285611095565b6108b385858561112a565b60019150509392505050565b60006108c961121e565b7f00000000000000000000000000000000000000000000000000000000000000006108f491906121ef565b905090565b60007f0000000000000000000000000000000000000000000000000000000000000000905090565b60007fffffffffffffffffffffffffffffffffffffffffffffffffffffffffffffffff9050919050565b6000610958826000610fc9565b9050919050565b6000600654905090565b8060068190555050565b60008061097f83610921565b9050808411156109ca578284826040517f79012fb20000000000000000000000000000000000000000000000000000000081526004016109c193929190612224565b60405180910390fd5b60006109d585610f2f565b90506109ea6109e2611022565b858784611223565b809250505092915050565b60008060008373ffffffffffffffffffffffffffffffffffffffff1673ffffffffffffffffffffffffffffffffffffffff168152602001908152602001600020549050919050565b610a456112c6565b610a4f600061134d565b565b60075481565b60065481565b6000600560009054906101000a900473ffffffffffffffffffffffffffffffffffffffff16905090565b600080610a9383610e3c565b905080841115610ade578284826040517f284ff667000000000000000000000000000000000000000000000000000000008152600401610ad593929190612224565b60405180910390fd5b6000610ae985610d20565b9050610afe610af6611022565b858388611223565b809250505092915050565b606060048054610b189061218f565b80601f0160208091040260200160405190810160405280929190818152602001828054610b449061218f565b8015610b915780601f10610b6657610100808354040283529160200191610b91565b820191906000526020600020905b815481529060010190602001808311610b7457829003601f168201915b5050505050905090565b600060075442610bab919061225b565b90506000811115610cfa576000610bc06108f9565b73ffffffffffffffffffffffffffffffffffffffff166370a08231306040518263ffffffff1660e01b8152600401610bf89190612003565b602060405180830381865afa158015610c15573d6000803e3d6000fd5b505050506040513d601f19601f82011682018060405250810190610c399190612133565b90506000811115610cf157600064496cebb8008360065484610c5b919061228f565b610c65919061228f565b610c6f9190612300565b90506000811115610cef57610c826108f9565b73ffffffffffffffffffffffffffffffffffffffff166340c10f1930836040518363ffffffff1660e01b8152600401610cbc929190612331565b600060405180830381600087803b158015610cd657600080fd5b505af1158015610cea573d6000803e3d6000fd5b505050505b505b42600781905550505b50565b600080610d08611022565b9050610d1581858561112a565b600191505092915050565b6000610d2d826001610fc9565b9050919050565b600080610d4083610e7a565b905080851115610d8b578285826040517ffe9cceec000000000000000000000000000000000000000000000000000000008152600401610d8293929190612224565b60405180910390fd5b6000610d9686610872565b9050610dac610da3611022565b86868985611413565b80925050509392505050565b600080610dc483610e96565b905080851115610e0f578285826040517fb94abeec000000000000000000000000000000000000000000000000000000008152600401610e0693929190612224565b60405180910390fd5b6000610e1a8661094b565b9050610e30610e27611022565b8686848a611413565b80925050509392505050565b60007fffffffffffffffffffffffffffffffffffffffffffffffffffffffffffffffff9050919050565b6000610e7382600061103c565b9050919050565b6000610e8f610e88836109f5565b6000610fc9565b9050919050565b6000610ea1826109f5565b9050919050565b6000600160008473ffffffffffffffffffffffffffffffffffffffff1673ffffffffffffffffffffffffffffffffffffffff16815260200190815260200160002060008373ffffffffffffffffffffffffffffffffffffffff1673ffffffffffffffffffffffffffffffffffffffff16815260200190815260200160002054905092915050565b6000610f3c82600061103c565b9050919050565b610f4b6112c6565b600073ffffffffffffffffffffffffffffffffffffffff168173ffffffffffffffffffffffffffffffffffffffff1603610fbd5760006040517f1e4fbdf7000000000000000000000000000000000000000000000000000000008152600401610fb49190612003565b60405180910390fd5b610fc68161134d565b50565b600061101a6001610fd8610708565b610fe2919061235a565b610fea61121e565b600a610ff691906124c1565b610ffe610886565b611008919061235a565b848661150c909392919063ffffffff16565b905092915050565b600033905090565b611037838383600161155b565b505050565b600061108d61104961121e565b600a61105591906124c1565b61105d610886565b611067919061235a565b6001611071610708565b61107b919061235a565b848661150c909392919063ffffffff16565b905092915050565b60006110a18484610ea8565b90507fffffffffffffffffffffffffffffffffffffffffffffffffffffffffffffffff8110156111245781811015611114578281836040517ffb8f41b200000000000000000000000000000000000000000000000000000000815260040161110b93929190612224565b60405180910390fd5b6111238484848403600061155b565b5b50505050565b600073ffffffffffffffffffffffffffffffffffffffff168373ffffffffffffffffffffffffffffffffffffffff160361119c5760006040517f96c6fd1e0000000000000000000000000000000000000000000000000000000081526004016111939190612003565b60405180910390fd5b600073ffffffffffffffffffffffffffffffffffffffff168273ffffffffffffffffffffffffffffffffffffffff160361120e5760006040517fec442f050000000000000000000000000000000000000000000000000000000081526004016112059190612003565b60405180910390fd5b611219838383611732565b505050565b600090565b61124f7f0000000000000000000000000000000000000000000000000000000000000000853085611957565b61125983826119d9565b8273ffffffffffffffffffffffffffffffffffffffff168473ffffffffffffffffffffffffffffffffffffffff167fdcbc1c05240f31ff3ad067ef1ee35ce4997762752e3a095284754544f4c709d784846040516112b892919061250c565b60405180910390a350505050565b6112ce611022565b73ffffffffffffffffffffffffffffffffffffffff166112ec610a5d565b73ffffffffffffffffffffffffffffffffffffffff161461134b5761130f611022565b6040517f118cdaa70000000000000000000000000000000000000000000000000000000081526004016113429190612003565b60405180910390fd5b565b6000600560009054906101000a900473ffffffffffffffffffffffffffffffffffffffff16905081600560006101000a81548173ffffffffffffffffffffffffffffffffffffffff021916908373ffffffffffffffffffffffffffffffffffffffff1602179055508173ffffffffffffffffffffffffffffffffffffffff168173ffffffffffffffffffffffffffffffffffffffff167f8be0079c531659141344cd1fd0a4f28419497f9722a3daafe3b4186f6b6457e060405160405180910390a35050565b8273ffffffffffffffffffffffffffffffffffffffff168573ffffffffffffffffffffffffffffffffffffffff161461145257611451838683611095565b5b61145c8382611a5b565b6114877f00000000000000000000000000000000000000000000000000000000000000008584611add565b8273ffffffffffffffffffffffffffffffffffffffff168473ffffffffffffffffffffffffffffffffffffffff168673ffffffffffffffffffffffffffffffffffffffff167ffbde797d201c681b91056529119e0b02407c7bb96a4a2c75c01fc9667232c8db85856040516114fd92919061250c565b60405180910390a45050505050565b600061153c61151a83611b5c565b8015611537575060008480611532576115316122d1565b5b868809115b611b8a565b611547868686611b96565b611551919061235a565b9050949350505050565b600073ffffffffffffffffffffffffffffffffffffffff168473ffffffffffffffffffffffffffffffffffffffff16036115cd5760006040517fe602df050000000000000000000000000000000000000000000000000000000081526004016115c49190612003565b60405180910390fd5b600073ffffffffffffffffffffffffffffffffffffffff168373ffffffffffffffffffffffffffffffffffffffff160361163f5760006040517f94280d620000000000000000000000000000000000000000000000000000000081526004016116369190612003565b60405180910390fd5b81600160008673ffffffffffffffffffffffffffffffffffffffff1673ffffffffffffffffffffffffffffffffffffffff16815260200190815260200160002060008573ffffffffffffffffffffffffffffffffffffffff1673ffffffffffffffffffffffffffffffffffffffff16815260200190815260200160002081905550801561172c578273ffffffffffffffffffffffffffffffffffffffff168473ffffffffffffffffffffffffffffffffffffffff167f8c5be1e5ebec7d5bd14f71427d1e84f3dd0314c0f7b2291e5b200ac8c7c3b925846040516117239190611d6b565b60405180910390a35b50505050565b600073ffffffffffffffffffffffffffffffffffffffff168373ffffffffffffffffffffffffffffffffffffffff1603611784578060026000828254611778919061235a565b92505081905550611857565b60008060008573ffffffffffffffffffffffffffffffffffffffff1673ffffffffffffffffffffffffffffffffffffffff16815260200190815260200160002054905081811015611810578381836040517fe450d38c00000000000000000000000000000000000000000000000000000000815260040161180793929190612224565b60405180910390fd5b8181036000808673ffffffffffffffffffffffffffffffffffffffff1673ffffffffffffffffffffffffffffffffffffffff16815260200190815260200160002081905550505b600073ffffffffffffffffffffffffffffffffffffffff168273ffffffffffffffffffffffffffffffffffffffff16036118a057806002600082825403925050819055506118ed565b806000808473ffffffffffffffffffffffffffffffffffffffff1673ffffffffffffffffffffffffffffffffffffffff168152602001908152602001600020600082825401925050819055505b8173ffffffffffffffffffffffffffffffffffffffff168373ffffffffffffffffffffffffffffffffffffffff167fddf252ad1be2c89b69c2b068fc378daa952ba7f163c4a11628f55a4df523b3ef8360405161194a9190611d6b565b60405180910390a3505050565b6119d3848573ffffffffffffffffffffffffffffffffffffffff166323b872dd86868660405160240161198c93929190612535565b604051602081830303815290604052915060e01b6020820180517bffffffffffffffffffffffffffffffffffffffffffffffffffffffff8381831617835250505050611c84565b50505050565b600073ffffffffffffffffffffffffffffffffffffffff168273ffffffffffffffffffffffffffffffffffffffff1603611a4b5760006040517fec442f05000000000000000000000000000000000000000000000000000000008152600401611a429190612003565b60405180910390fd5b611a5760008383611732565b5050565b600073ffffffffffffffffffffffffffffffffffffffff168273ffffffffffffffffffffffffffffffffffffffff1603611acd5760006040517f96c6fd1e000000000000000000000000000000000000000000000000000000008152600401611ac49190612003565b60405180910390fd5b611ad982600083611732565b5050565b611b57838473ffffffffffffffffffffffffffffffffffffffff1663a9059cbb8585604051602401611b10929190612331565b604051602081830303815290604052915060e01b6020820180517bffffffffffffffffffffffffffffffffffffffffffffffffffffffff8381831617835250505050611c84565b505050565b600060016002836003811115611b7557611b7461256c565b5b611b7f919061259b565b60ff16149050919050565b60008115159050919050565b6000808385029050600080198587098281108382030391505060008103611bd157838281611bc757611bc66122d1565b5b0492505050611c7d565b808411611bf157611bf0611beb6000861460126011611d26565b611d40565b5b600084868809905082811182039150808303925060008560000386169050808604955080840493506001818260000304019050808302841793506000600287600302189050808702600203810290508087026002038102905080870260020381029050808702600203810290508087026002038102905080870260020381029050808502955050505050505b9392505050565b600080602060008451602086016000885af180611ca7576040513d6000823e3d81fd5b3d925060005191505060008214611cc2576001811415611cde565b60008473ffffffffffffffffffffffffffffffffffffffff163b145b15611d2057836040517f5274afe7000000000000000000000000000000000000000000000000000000008152600401611d179190612003565b60405180910390fd5b50505050565b6000611d3184611b8a565b82841802821890509392505050565b634e487b71600052806020526024601cfd5b6000819050919050565b611d6581611d52565b82525050565b6000602082019050611d806000830184611d5c565b92915050565b600081519050919050565b600082825260208201905092915050565b60005b83811015611dc0578082015181840152602081019050611da5565b60008484015250505050565b6000601f19601f8301169050919050565b6000611de882611d86565b611df28185611d91565b9350611e02818560208601611da2565b611e0b81611dcc565b840191505092915050565b60006020820190508181036000830152611e308184611ddd565b905092915050565b600080fd5b611e4681611d52565b8114611e5157600080fd5b50565b600081359050611e6381611e3d565b92915050565b600060208284031215611e7f57611e7e611e38565b5b6000611e8d84828501611e54565b91505092915050565b600073ffffffffffffffffffffffffffffffffffffffff82169050919050565b6000611ec182611e96565b9050919050565b611ed181611eb6565b8114611edc57600080fd5b50565b600081359050611eee81611ec8565b92915050565b60008060408385031215611f0b57611f0a611e38565b5b6000611f1985828601611edf565b9250506020611f2a85828601611e54565b9150509250929050565b60008115159050919050565b611f4981611f34565b82525050565b6000602082019050611f646000830184611f40565b92915050565b600080600060608486031215611f8357611f82611e38565b5b6000611f9186828701611edf565b9350506020611fa286828701611edf565b9250506040611fb386828701611e54565b9150509250925092565b600060ff82169050919050565b611fd381611fbd565b82525050565b6000602082019050611fee6000830184611fca565b92915050565b611ffd81611eb6565b82525050565b60006020820190506120186000830184611ff4565b92915050565b60006020828403121561203457612033611e38565b5b600061204284828501611edf565b91505092915050565b6000806040838503121561206257612061611e38565b5b600061207085828601611e54565b925050602061208185828601611edf565b9150509250929050565b6000806000606084860312156120a4576120a3611e38565b5b60006120b286828701611e54565b93505060206120c386828701611edf565b92505060406120d486828701611edf565b9150509250925092565b600080604083850312156120f5576120f4611e38565b5b600061210385828601611edf565b925050602061211485828601611edf565b9150509250929050565b60008151905061212d81611e3d565b92915050565b60006020828403121561214957612148611e38565b5b60006121578482850161211e565b91505092915050565b7f4e487b7100000000000000000000000000000000000000000000000000000000600052602260045260246000fd5b600060028204905060018216806121a757607f821691505b6020821081036121ba576121b9612160565b5b50919050565b7f4e487b7100000000000000000000000000000000000000000000000000000000600052601160045260246000fd5b60006121fa82611fbd565b915061220583611fbd565b9250828201905060ff81111561221e5761221d6121c0565b5b92915050565b60006060820190506122396000830186611ff4565b6122466020830185611d5c565b6122536040830184611d5c565b949350505050565b600061226682611d52565b915061227183611d52565b9250828203905081811115612289576122886121c0565b5b92915050565b600061229a82611d52565b91506122a583611d52565b92508282026122b381611d52565b915082820484148315176122ca576122c96121c0565b5b5092915050565b7f4e487b7100000000000000000000000000000000000000000000000000000000600052601260045260246000fd5b600061230b82611d52565b915061231683611d52565b925082612326576123256122d1565b5b828204905092915050565b60006040820190506123466000830185611ff4565b6123536020830184611d5c565b9392505050565b600061236582611d52565b915061237083611d52565b9250828201905080821115612388576123876121c0565b5b92915050565b60008160011c9050919050565b6000808291508390505b60018511156123e5578086048111156123c1576123c06121c0565b5b60018516156123d05780820291505b80810290506123de8561238e565b94506123a5565b94509492505050565b6000826123fe57600190506124ba565b8161240c57600090506124ba565b8160018114612422576002811461242c5761245b565b60019150506124ba565b60ff84111561243e5761243d6121c0565b5b8360020a915084821115612455576124546121c0565b5b506124ba565b5060208310610133831016604e8410600b84101617156124905782820a90508381111561248b5761248a6121c0565b5b6124ba565b61249d848484600161239b565b925090508184048111156124b4576124b36121c0565b5b81810290505b9392505050565b60006124cc82611d52565b91506124d783611fbd565b92506125047fffffffffffffffffffffffffffffffffffffffffffffffffffffffffffffffff84846123ee565b905092915050565b60006040820190506125216000830185611d5c565b61252e6020830184611d5c565b9392505050565b600060608201905061254a6000830186611ff4565b6125576020830185611ff4565b6125646040830184611d5c565b949350505050565b7f4e487b7100000000000000000000000000000000000000000000000000000000600052602160045260246000fd5b60006125a682611fbd565b91506125b183611fbd565b9250826125c1576125c06122d1565b5b82820690509291505056fea26469706673582212205f436f01a30c2d9a95314641aa6d4d100b7b891dfd7c89900f8a9e536436a91764736f6c634300081c0033",
  "linkReferences": {},
  "deployedLinkReferences": {}
}