{
  "_format": "hh-sol-artifact-1",
  "contractName": "YieldOptimizer",
  "sourceName": "contracts/ezToken.sol",
  "abi": [
    {
      "inputs": [
        {
          "internalType": "contract IERC20",
          "name": "_asset",
          "type": "address"
        },
        {
          "internalType": "address[]",
          "name": "_vaults",
          "type": "address[]"
        }
      ],
      "stateMutability": "nonpayable",
      "type": "constructor"
    },
    {
      "inputs": [
        {
          "internalType": "address",
          "name": "spender",
          "type": "address"
        },
        {
          "internalType": "uint256",
          "name": "allowance",
          "type": "uint256"
        },
        {
          "internalType": "uint256",
          "name": "needed",
          "type": "uint256"
        }
      ],
      "name": "ERC20InsufficientAllowance",
      "type": "error"
    },
    {
      "inputs": [
        {
          "internalType": "address",
          "name": "sender",
          "type": "address"
        },
        {
          "internalType": "uint256",
          "name": "balance",
          "type": "uint256"
        },
        {
          "internalType": "uint256",
          "name": "needed",
          "type": "uint256"
        }
      ],
      "name": "ERC20InsufficientBalance",
      "type": "error"
    },
    {
      "inputs": [
        {
          "internalType": "address",
          "name": "approver",
          "type": "address"
        }
      ],
      "name": "ERC20InvalidApprover",
      "type": "error"
    },
    {
      "inputs": [
        {
          "internalType": "address",
          "name": "receiver",
          "type": "address"
        }
      ],
      "name": "ERC20InvalidReceiver",
      "type": "error"
    },
    {
      "inputs": [
        {
          "internalType": "address",
          "name": "sender",
          "type": "address"
        }
      ],
      "name": "ERC20InvalidSender",
      "type": "error"
    },
    {
      "inputs": [
        {
          "internalType": "address",
          "name": "spender",
          "type": "address"
        }
      ],
      "name": "ERC20InvalidSpender",
      "type": "error"
    },
    {
      "inputs": [
        {
          "internalType": "address",
          "name": "owner",
          "type": "address"
        }
      ],
      "name": "OwnableInvalidOwner",
      "type": "error"
    },
    {
      "inputs": [
        {
          "internalType": "address",
          "name": "account",
          "type": "address"
        }
      ],
      "name": "OwnableUnauthorizedAccount",
      "type": "error"
    },
    {
      "anonymous": false,
      "inputs": [
        {
          "indexed": true,
          "internalType": "address",
          "name": "owner",
          "type": "address"
        },
        {
          "indexed": true,
          "internalType": "address",
          "name": "spender",
          "type": "address"
        },
        {
          "indexed": false,
          "internalType": "uint256",
          "name": "value",
          "type": "uint256"
        }
      ],
      "name": "Approval",
      "type": "event"
    },
    {
      "anonymous": false,
      "inputs": [
        {
          "indexed": true,
          "internalType": "address",
          "name": "user",
          "type": "address"
        },
        {
          "indexed": false,
          "internalType": "uint256",
          "name": "amount",
          "type": "uint256"
        },
        {
          "indexed": false,
          "internalType": "uint256",
          "name": "shares",
          "type": "uint256"
        }
      ],
      "name": "Deposited",
      "type": "event"
    },
    {
      "anonymous": false,
      "inputs": [
        {
          "indexed": true,
          "internalType": "address",
          "name": "previousOwner",
          "type": "address"
        },
        {
          "indexed": true,
          "internalType": "address",
          "name": "newOwner",
          "type": "address"
        }
      ],
      "name": "OwnershipTransferred",
      "type": "event"
    },
    {
      "anonymous": false,
      "inputs": [
        {
          "indexed": true,
          "internalType": "address",
          "name": "newVault",
          "type": "address"
        },
        {
          "indexed": false,
          "internalType": "uint256",
          "name": "amount",
          "type": "uint256"
        }
      ],
      "name": "Rebalanced",
      "type": "event"
    },
    {
      "anonymous": false,
      "inputs": [
        {
          "indexed": true,
          "internalType": "address",
          "name": "from",
          "type": "address"
        },
        {
          "indexed": true,
          "internalType": "address",
          "name": "to",
          "type": "address"
        },
        {
          "indexed": false,
          "internalType": "uint256",
          "name": "value",
          "type": "uint256"
        }
      ],
      "name": "Transfer",
      "type": "event"
    },
    {
      "anonymous": false,
      "inputs": [
        {
          "indexed": true,
          "internalType": "address",
          "name": "vault",
          "type": "address"
        }
      ],
      "name": "VaultAdded",
      "type": "event"
    },
    {
      "anonymous": false,
      "inputs": [
        {
          "indexed": true,
          "internalType": "address",
          "name": "vault",
          "type": "address"
        }
      ],
      "name": "VaultRemoved",
      "type": "event"
    },
    {
      "anonymous": false,
      "inputs": [
        {
          "indexed": true,
          "internalType": "address",
          "name": "user",
          "type": "address"
        },
        {
          "indexed": false,
          "internalType": "uint256",
          "name": "amount",
          "type": "uint256"
        },
        {
          "indexed": false,
          "internalType": "uint256",
          "name": "shares",
          "type": "uint256"
        }
      ],
      "name": "Withdrawn",
      "type": "event"
    },
    {
      "inputs": [
        {
          "internalType": "address",
          "name": "vault",
          "type": "address"
        }
      ],
      "name": "addVault",
      "outputs": [],
      "stateMutability": "nonpayable",
      "type": "function"
    },
    {
      "inputs": [
        {
          "internalType": "address",
          "name": "owner",
          "type": "address"
        },
        {
          "internalType": "address",
          "name": "spender",
          "type": "address"
        }
      ],
      "name": "allowance",
      "outputs": [
        {
          "internalType": "uint256",
          "name": "",
          "type": "uint256"
        }
      ],
      "stateMutability": "view",
      "type": "function"
    },
    {
      "inputs": [
        {
          "internalType": "uint256",
          "name": "",
          "type": "uint256"
        }
      ],
      "name": "allowedVaults",
      "outputs": [
        {
          "internalType": "address",
          "name": "",
          "type": "address"
        }
      ],
      "stateMutability": "view",
      "type": "function"
    },
    {
      "inputs": [
        {
          "internalType": "address",
          "name": "spender",
          "type": "address"
        },
        {
          "internalType": "uint256",
          "name": "value",
          "type": "uint256"
        }
      ],
      "name": "approve",
      "outputs": [
        {
          "internalType": "bool",
          "name": "",
          "type": "bool"
        }
      ],
      "stateMutability": "nonpayable",
      "type": "function"
    },
    {
      "inputs": [],
      "name": "asset",
      "outputs": [
        {
          "internalType": "contract IERC20",
          "name": "",
          "type": "address"
        }
      ],
      "stateMutability": "view",
      "type": "function"
    },
    {
      "inputs": [
        {
          "internalType": "address",
          "name": "account",
          "type": "address"
        }
      ],
      "name": "balanceOf",
      "outputs": [
        {
          "internalType": "uint256",
          "name": "",
          "type": "uint256"
        }
      ],
      "stateMutability": "view",
      "type": "function"
    },
    {
      "inputs": [],
      "name": "currentVault",
      "outputs": [
        {
          "internalType": "address",
          "name": "",
          "type": "address"
        }
      ],
      "stateMutability": "view",
      "type": "function"
    },
    {
      "inputs": [],
      "name": "decimals",
      "outputs": [
        {
          "internalType": "uint8",
          "name": "",
          "type": "uint8"
        }
      ],
      "stateMutability": "view",
      "type": "function"
    },
    {
      "inputs": [
        {
          "internalType": "uint256",
          "name": "amount",
          "type": "uint256"
        }
      ],
      "name": "deposit",
      "outputs": [
        {
          "internalType": "uint256",
          "name": "shares",
          "type": "uint256"
        }
      ],
      "stateMutability": "nonpayable",
      "type": "function"
    },
    {
      "inputs": [],
      "name": "findBestVault",
      "outputs": [
        {
          "internalType": "address",
          "name": "best",
          "type": "address"
        }
      ],
      "stateMutability": "view",
      "type": "function"
    },
    {
      "inputs": [],
      "name": "lastRebalance",
      "outputs": [
        {
          "internalType": "uint256",
          "name": "",
          "type": "uint256"
        }
      ],
      "stateMutability": "view",
      "type": "function"
    },
    {
      "inputs": [],
      "name": "name",
      "outputs": [
        {
          "internalType": "string",
          "name": "",
          "type": "string"
        }
      ],
      "stateMutability": "view",
      "type": "function"
    },
    {
      "inputs": [],
      "name": "owner",
      "outputs": [
        {
          "internalType": "address",
          "name": "",
          "type": "address"
        }
      ],
      "stateMutability": "view",
      "type": "function"
    },
    {
      "inputs": [],
      "name": "rebalance",
      "outputs": [],
      "stateMutability": "nonpayable",
      "type": "function"
    },
    {
      "inputs": [
        {
          "internalType": "address",
          "name": "vault",
          "type": "address"
        }
      ],
      "name": "removeVault",
      "outputs": [],
      "stateMutability": "nonpayable",
      "type": "function"
    },
    {
      "inputs": [],
      "name": "renounceOwnership",
      "outputs": [],
      "stateMutability": "nonpayable",
      "type": "function"
    },
    {
      "inputs": [],
      "name": "symbol",
      "outputs": [
        {
          "internalType": "string",
          "name": "",
          "type": "string"
        }
      ],
      "stateMutability": "view",
      "type": "function"
    },
    {
      "inputs": [],
      "name": "totalAssets",
      "outputs": [
        {
          "internalType": "uint256",
          "name": "",
          "type": "uint256"
        }
      ],
      "stateMutability": "view",
      "type": "function"
    },
    {
      "inputs": [],
      "name": "totalSupply",
      "outputs": [
        {
          "internalType": "uint256",
          "name": "",
          "type": "uint256"
        }
      ],
      "stateMutability": "view",
      "type": "function"
    },
    {
      "inputs": [
        {
          "internalType": "address",
          "name": "to",
          "type": "address"
        },
        {
          "internalType": "uint256",
          "name": "value",
          "type": "uint256"
        }
      ],
      "name": "transfer",
      "outputs": [
        {
          "internalType": "bool",
          "name": "",
          "type": "bool"
        }
      ],
      "stateMutability": "nonpayable",
      "type": "function"
    },
    {
      "inputs": [
        {
          "internalType": "address",
          "name": "from",
          "type": "address"
        },
        {
          "internalType": "address",
          "name": "to",
          "type": "address"
        },
        {
          "internalType": "uint256",
          "name": "value",
          "type": "uint256"
        }
      ],
      "name": "transferFrom",
      "outputs": [
        {
          "internalType": "bool",
          "name": "",
          "type": "bool"
        }
      ],
      "stateMutability": "nonpayable",
      "type": "function"
    },
    {
      "inputs": [
        {
          "internalType": "address",
          "name": "newOwner",
          "type": "address"
        }
      ],
      "name": "transferOwnership",
      "outputs": [],
      "stateMutability": "nonpayable",
      "type": "function"
    },
    {
      "inputs": [
        {
          "internalType": "uint256",
          "name": "shares",
          "type": "uint256"
        }
      ],
      "name": "withdraw",
      "outputs": [
        {
          "internalType": "uint256",
          "name": "amount",
          "type": "uint256"
        }
      ],
      "stateMutability": "nonpayable",
      "type": "function"
    }
  ],
  "bytecode": "0x60a060405234801561001057600080fd5b506040516138da3803806138da83398181016040528101906100329190610618565b336040518060400160405280600f81526020017f5969656c64204f7074696d697a657200000000000000000000000000000000008152506040518060400160405280600281526020017f594f00000000000000000000000000000000000000000000000000000000000081525081600390816100ae9190610895565b5080600490816100be9190610895565b505050600073ffffffffffffffffffffffffffffffffffffffff168173ffffffffffffffffffffffffffffffffffffffff16036101335760006040517f1e4fbdf700000000000000000000000000000000000000000000000000000000815260040161012a9190610976565b60405180910390fd5b610142816101c160201b60201c565b508173ffffffffffffffffffffffffffffffffffffffff1660808173ffffffffffffffffffffffffffffffffffffffff168152505060005b81518110156101b9576101ac82828151811061019957610198610991565b5b602002602001015161028760201b60201c565b808060010191505061017a565b505050610ada565b6000600560009054906101000a900473ffffffffffffffffffffffffffffffffffffffff16905081600560006101000a81548173ffffffffffffffffffffffffffffffffffffffff021916908373ffffffffffffffffffffffffffffffffffffffff1602179055508173ffffffffffffffffffffffffffffffffffffffff168173ffffffffffffffffffffffffffffffffffffffff167f8be0079c531659141344cd1fd0a4f28419497f9722a3daafe3b4186f6b6457e060405160405180910390a35050565b6006819080600181540180825580915050600190039060005260206000200160009091909190916101000a81548173ffffffffffffffffffffffffffffffffffffffff021916908373ffffffffffffffffffffffffffffffffffffffff16021790555060805173ffffffffffffffffffffffffffffffffffffffff1663095ea7b3827fffffffffffffffffffffffffffffffffffffffffffffffffffffffffffffffff6040518363ffffffff1660e01b81526004016103479291906109cf565b6020604051808303816000875af1158015610366573d6000803e3d6000fd5b505050506040513d601f19601f8201168201806040525081019061038a9190610a30565b6103c9576040517f08c379a00000000000000000000000000000000000000000000000000000000081526004016103c090610aba565b60405180910390fd5b8073ffffffffffffffffffffffffffffffffffffffff167f7b7ef7a864d96a85497a1ed846adb39940dd6ccef678ff6ac8d55505e09b8cc460405160405180910390a250565b6000604051905090565b600080fd5b600080fd5b600073ffffffffffffffffffffffffffffffffffffffff82169050919050565b600061044e82610423565b9050919050565b600061046082610443565b9050919050565b61047081610455565b811461047b57600080fd5b50565b60008151905061048d81610467565b92915050565b600080fd5b6000601f19601f8301169050919050565b7f4e487b7100000000000000000000000000000000000000000000000000000000600052604160045260246000fd5b6104e182610498565b810181811067ffffffffffffffff82111715610500576104ff6104a9565b5b80604052505050565b600061051361040f565b905061051f82826104d8565b919050565b600067ffffffffffffffff82111561053f5761053e6104a9565b5b602082029050602081019050919050565b600080fd5b61055e81610443565b811461056957600080fd5b50565b60008151905061057b81610555565b92915050565b600061059461058f84610524565b610509565b905080838252602082019050602084028301858111156105b7576105b6610550565b5b835b818110156105e057806105cc888261056c565b8452602084019350506020810190506105b9565b5050509392505050565b600082601f8301126105ff576105fe610493565b5b815161060f848260208601610581565b91505092915050565b6000806040838503121561062f5761062e610419565b5b600061063d8582860161047e565b925050602083015167ffffffffffffffff81111561065e5761065d61041e565b5b61066a858286016105ea565b9150509250929050565b600081519050919050565b7f4e487b7100000000000000000000000000000000000000000000000000000000600052602260045260246000fd5b600060028204905060018216806106c657607f821691505b6020821081036106d9576106d861067f565b5b50919050565b60008190508160005260206000209050919050565b60006020601f8301049050919050565b600082821b905092915050565b6000600883026107417fffffffffffffffffffffffffffffffffffffffffffffffffffffffffffffffff82610704565b61074b8683610704565b95508019841693508086168417925050509392505050565b6000819050919050565b6000819050919050565b600061079261078d61078884610763565b61076d565b610763565b9050919050565b6000819050919050565b6107ac83610777565b6107c06107b882610799565b848454610711565b825550505050565b600090565b6107d56107c8565b6107e08184846107a3565b505050565b5b81811015610804576107f96000826107cd565b6001810190506107e6565b5050565b601f8211156108495761081a816106df565b610823846106f4565b81016020851015610832578190505b61084661083e856106f4565b8301826107e5565b50505b505050565b600082821c905092915050565b600061086c6000198460080261084e565b1980831691505092915050565b6000610885838361085b565b9150826002028217905092915050565b61089e82610674565b67ffffffffffffffff8111156108b7576108b66104a9565b5b6108c182546106ae565b6108cc828285610808565b600060209050601f8311600181146108ff57600084156108ed578287015190505b6108f78582610879565b86555061095f565b601f19841661090d866106df565b60005b8281101561093557848901518255600182019150602085019450602081019050610910565b86831015610952578489015161094e601f89168261085b565b8355505b6001600288020188555050505b505050505050565b61097081610443565b82525050565b600060208201905061098b6000830184610967565b92915050565b7f4e487b7100000000000000000000000000000000000000000000000000000000600052603260045260246000fd5b6109c981610763565b82525050565b60006040820190506109e46000830185610967565b6109f160208301846109c0565b9392505050565b60008115159050919050565b610a0d816109f8565b8114610a1857600080fd5b50565b600081519050610a2a81610a04565b92915050565b600060208284031215610a4657610a45610419565b5b6000610a5484828501610a1b565b91505092915050565b600082825260208201905092915050565b7f417070726f7665206661696c6564000000000000000000000000000000000000600082015250565b6000610aa4600e83610a5d565b9150610aaf82610a6e565b602082019050919050565b60006020820190508181036000830152610ad381610a97565b9050919050565b608051612db4610b266000396000818161046b015281816108d10152818161098a01528181610ac701528181610c3a01528181610e170152818161169a0152611bb50152612db46000f3fe608060405234801561001057600080fd5b506004361061014d5760003560e01c806338d52e0f116100c3578063a9059cbb1161007c578063a9059cbb14610380578063b6b55f25146103b0578063ceb68c23146103e0578063dd62ed3e146103fc578063e8bd8e3f1461042c578063f2fde38b1461044a5761014d565b806338d52e0f146102e257806370a0823114610300578063715018a6146103305780637d7c2a1c1461033a5780638da5cb5b1461034457806395d89b41146103625761014d565b806318160ddd1161011557806318160ddd1461020c57806323b872dd1461022a578063256b5a021461025a5780632b0c6c45146102765780632e1a7d4d14610294578063313ce567146102c45761014d565b806301e1d1141461015257806306fdde0314610170578063095ea7b31461018e578063106b9ca1146101be5780631746a22b146101dc575b600080fd5b61015a610466565b6040516101679190612362565b60405180910390f35b61017861069b565b604051610185919061240d565b60405180910390f35b6101a860048036038101906101a391906124be565b61072d565b6040516101b59190612519565b60405180910390f35b6101c6610750565b6040516101d39190612362565b60405180910390f35b6101f660048036038101906101f19190612534565b610756565b6040516102039190612570565b60405180910390f35b610214610795565b6040516102219190612362565b60405180910390f35b610244600480360381019061023f919061258b565b61079f565b6040516102519190612519565b60405180910390f35b610274600480360381019061026f91906125de565b6107ce565b005b61027e6107e2565b60405161028b9190612570565b60405180910390f35b6102ae60048036038101906102a99190612534565b610808565b6040516102bb9190612362565b60405180910390f35b6102cc610abc565b6040516102d99190612627565b60405180910390f35b6102ea610ac5565b6040516102f791906126a1565b60405180910390f35b61031a600480360381019061031591906125de565b610ae9565b6040516103279190612362565b60405180910390f35b610338610b31565b005b610342610b45565b005b61034c610cf2565b6040516103599190612570565b60405180910390f35b61036a610d1c565b604051610377919061240d565b60405180910390f35b61039a600480360381019061039591906124be565b610dae565b6040516103a79190612519565b60405180910390f35b6103ca60048036038101906103c59190612534565b610dd1565b6040516103d79190612362565b60405180910390f35b6103fa60048036038101906103f591906125de565b61106d565b005b610416600480360381019061041191906126bc565b611161565b6040516104239190612362565b60405180910390f35b6104346111e8565b6040516104419190612570565b60405180910390f35b610464600480360381019061045f91906125de565b611385565b005b6000807f000000000000000000000000000000000000000000000000000000000000000073ffffffffffffffffffffffffffffffffffffffff166370a08231306040518263ffffffff1660e01b81526004016104c29190612570565b602060405180830381865afa1580156104df573d6000803e3d6000fd5b505050506040513d601f19601f820116820180604052508101906105039190612711565b9050600073ffffffffffffffffffffffffffffffffffffffff16600760009054906101000a900473ffffffffffffffffffffffffffffffffffffffff1673ffffffffffffffffffffffffffffffffffffffff1614610694576000600760009054906101000a900473ffffffffffffffffffffffffffffffffffffffff16905060008173ffffffffffffffffffffffffffffffffffffffff166370a08231306040518263ffffffff1660e01b81526004016105bd9190612570565b602060405180830381865afa1580156105da573d6000803e3d6000fd5b505050506040513d601f19601f820116820180604052508101906105fe9190612711565b90506000811115610691578173ffffffffffffffffffffffffffffffffffffffff16634cdad506826040518263ffffffff1660e01b81526004016106429190612362565b602060405180830381865afa15801561065f573d6000803e3d6000fd5b505050506040513d601f19601f820116820180604052508101906106839190612711565b8361068e919061276d565b92505b50505b8091505090565b6060600380546106aa906127d0565b80601f01602080910402602001604051908101604052809291908181526020018280546106d6906127d0565b80156107235780601f106106f857610100808354040283529160200191610723565b820191906000526020600020905b81548152906001019060200180831161070657829003601f168201915b5050505050905090565b60008061073861140b565b9050610745818585611413565b600191505092915050565b60085481565b6006818154811061076657600080fd5b906000526020600020016000915054906101000a900473ffffffffffffffffffffffffffffffffffffffff1681565b6000600254905090565b6000806107aa61140b565b90506107b7858285611425565b6107c28585856114ba565b60019150509392505050565b6107d66115ae565b6107df81611635565b50565b600760009054906101000a900473ffffffffffffffffffffffffffffffffffffffff1681565b600080821161084c576040517f08c379a00000000000000000000000000000000000000000000000000000000081526004016108439061284d565b60405180910390fd5b8161085633610ae9565b1015610897576040517f08c379a000000000000000000000000000000000000000000000000000000000815260040161088e906128b9565b60405180910390fd5b60006108a1610466565b90506108ab610795565b81846108b791906128d9565b6108c1919061294a565b91506108cd33846117db565b60007f000000000000000000000000000000000000000000000000000000000000000073ffffffffffffffffffffffffffffffffffffffff166370a08231306040518263ffffffff1660e01b81526004016109289190612570565b602060405180830381865afa158015610945573d6000803e3d6000fd5b505050506040513d601f19601f820116820180604052508101906109699190612711565b905082811015610988576109878184610982919061297b565b61185d565b5b7f000000000000000000000000000000000000000000000000000000000000000073ffffffffffffffffffffffffffffffffffffffff1663a9059cbb33856040518363ffffffff1660e01b81526004016109e39291906129af565b6020604051808303816000875af1158015610a02573d6000803e3d6000fd5b505050506040513d601f19601f82011682018060405250810190610a269190612a04565b610a65576040517f08c379a0000000000000000000000000000000000000000000000000000000008152600401610a5c90612a7d565b60405180910390fd5b3373ffffffffffffffffffffffffffffffffffffffff167f92ccf450a286a957af52509bc1c9939d1a6a481783e142e41e2499f0bb66ebc68486604051610aad929190612a9d565b60405180910390a25050919050565b60006012905090565b7f000000000000000000000000000000000000000000000000000000000000000081565b60008060008373ffffffffffffffffffffffffffffffffffffffff1673ffffffffffffffffffffffffffffffffffffffff168152602001908152602001600020549050919050565b610b396115ae565b610b436000611960565b565b610b4d6115ae565b6000610b576111e8565b9050600760009054906101000a900473ffffffffffffffffffffffffffffffffffffffff1673ffffffffffffffffffffffffffffffffffffffff168173ffffffffffffffffffffffffffffffffffffffff1614610ce857610bb6611a26565b610bbf81611bb1565b80600760006101000a81548173ffffffffffffffffffffffffffffffffffffffff021916908373ffffffffffffffffffffffffffffffffffffffff1602179055508073ffffffffffffffffffffffffffffffffffffffff167f1427d1942829759938581ce754fd0f7f116bfb7a4b77f80f0cb32cd62c2138c77f000000000000000000000000000000000000000000000000000000000000000073ffffffffffffffffffffffffffffffffffffffff166370a08231306040518263ffffffff1660e01b8152600401610c919190612570565b602060405180830381865afa158015610cae573d6000803e3d6000fd5b505050506040513d601f19601f82011682018060405250810190610cd29190612711565b604051610cdf9190612362565b60405180910390a25b4260088190555050565b6000600560009054906101000a900473ffffffffffffffffffffffffffffffffffffffff16905090565b606060048054610d2b906127d0565b80601f0160208091040260200160405190810160405280929190818152602001828054610d57906127d0565b8015610da45780601f10610d7957610100808354040283529160200191610da4565b820191906000526020600020905b815481529060010190602001808311610d8757829003601f168201915b5050505050905090565b600080610db961140b565b9050610dc68185856114ba565b600191505092915050565b6000808211610e15576040517f08c379a0000000000000000000000000000000000000000000000000000000008152600401610e0c90612b12565b60405180910390fd5b7f000000000000000000000000000000000000000000000000000000000000000073ffffffffffffffffffffffffffffffffffffffff166323b872dd3330856040518463ffffffff1660e01b8152600401610e7293929190612b32565b6020604051808303816000875af1158015610e91573d6000803e3d6000fd5b505050506040513d601f19601f82011682018060405250810190610eb59190612a04565b610ef4576040517f08c379a0000000000000000000000000000000000000000000000000000000008152600401610eeb90612a7d565b60405180910390fd5b600073ffffffffffffffffffffffffffffffffffffffff16600760009054906101000a900473ffffffffffffffffffffffffffffffffffffffff1673ffffffffffffffffffffffffffffffffffffffff1603610f9357610f526111e8565b600760006101000a81548173ffffffffffffffffffffffffffffffffffffffff021916908373ffffffffffffffffffffffffffffffffffffffff1602179055505b610fbe600760009054906101000a900473ffffffffffffffffffffffffffffffffffffffff16611bb1565b6000610fc8610466565b90506000610fd4610795565b03610fe15782915061100d565b8281610fed919061297b565b610ff5610795565b8461100091906128d9565b61100a919061294a565b91505b6110173383611cdc565b3373ffffffffffffffffffffffffffffffffffffffff167f73a19dd210f1a7f902193214c0ee91dd35ee5b4d920cba8d519eca65a7b488ca848460405161105f929190612a9d565b60405180910390a250919050565b6110756115ae565b61110560068054806020026020016040519081016040528092919081815260200182805480156110fa57602002820191906000526020600020905b8160009054906101000a900473ffffffffffffffffffffffffffffffffffffffff1673ffffffffffffffffffffffffffffffffffffffff16815260200190600101908083116110b0575b505050505082611d5e565b6006908051906020019061111a9291906122a2565b508073ffffffffffffffffffffffffffffffffffffffff167fe71f3a50e5ad81964f352c411f1d45e35438ecd1acecef59ac81d9fbbf6cbc0a60405160405180910390a250565b6000600160008473ffffffffffffffffffffffffffffffffffffffff1673ffffffffffffffffffffffffffffffffffffffff16815260200190815260200160002060008373ffffffffffffffffffffffffffffffffffffffff1673ffffffffffffffffffffffffffffffffffffffff16815260200190815260200160002054905092915050565b6000806000905060005b6006805490508110156113115760006006828154811061121557611214612b69565b5b9060005260206000200160009054906101000a900473ffffffffffffffffffffffffffffffffffffffff16905060008173ffffffffffffffffffffffffffffffffffffffff16635257b5666040518163ffffffff1660e01b8152600401602060405180830381865afa15801561128f573d6000803e3d6000fd5b505050506040513d601f19601f820116820180604052508101906112b39190612711565b90508381111561130257809350600683815481106112d4576112d3612b69565b5b9060005260206000200160009054906101000a900473ffffffffffffffffffffffffffffffffffffffff1694505b505080806001019150506111f2565b50600073ffffffffffffffffffffffffffffffffffffffff168273ffffffffffffffffffffffffffffffffffffffff1603611381576040517f08c379a000000000000000000000000000000000000000000000000000000000815260040161137890612be4565b60405180910390fd5b5090565b61138d6115ae565b600073ffffffffffffffffffffffffffffffffffffffff168173ffffffffffffffffffffffffffffffffffffffff16036113ff5760006040517f1e4fbdf70000000000000000000000000000000000000000000000000000000081526004016113f69190612570565b60405180910390fd5b61140881611960565b50565b600033905090565b6114208383836001611ea6565b505050565b60006114318484611161565b90507fffffffffffffffffffffffffffffffffffffffffffffffffffffffffffffffff8110156114b457818110156114a4578281836040517ffb8f41b200000000000000000000000000000000000000000000000000000000815260040161149b93929190612c04565b60405180910390fd5b6114b384848484036000611ea6565b5b50505050565b600073ffffffffffffffffffffffffffffffffffffffff168373ffffffffffffffffffffffffffffffffffffffff160361152c5760006040517f96c6fd1e0000000000000000000000000000000000000000000000000000000081526004016115239190612570565b60405180910390fd5b600073ffffffffffffffffffffffffffffffffffffffff168273ffffffffffffffffffffffffffffffffffffffff160361159e5760006040517fec442f050000000000000000000000000000000000000000000000000000000081526004016115959190612570565b60405180910390fd5b6115a983838361207d565b505050565b6115b661140b565b73ffffffffffffffffffffffffffffffffffffffff166115d4610cf2565b73ffffffffffffffffffffffffffffffffffffffff1614611633576115f761140b565b6040517f118cdaa700000000000000000000000000000000000000000000000000000000815260040161162a9190612570565b60405180910390fd5b565b6006819080600181540180825580915050600190039060005260206000200160009091909190916101000a81548173ffffffffffffffffffffffffffffffffffffffff021916908373ffffffffffffffffffffffffffffffffffffffff1602179055507f000000000000000000000000000000000000000000000000000000000000000073ffffffffffffffffffffffffffffffffffffffff1663095ea7b3827fffffffffffffffffffffffffffffffffffffffffffffffffffffffffffffffff6040518363ffffffff1660e01b81526004016117139291906129af565b6020604051808303816000875af1158015611732573d6000803e3d6000fd5b505050506040513d601f19601f820116820180604052508101906117569190612a04565b611795576040517f08c379a000000000000000000000000000000000000000000000000000000000815260040161178c90612c87565b60405180910390fd5b8073ffffffffffffffffffffffffffffffffffffffff167f7b7ef7a864d96a85497a1ed846adb39940dd6ccef678ff6ac8d55505e09b8cc460405160405180910390a250565b600073ffffffffffffffffffffffffffffffffffffffff168273ffffffffffffffffffffffffffffffffffffffff160361184d5760006040517f96c6fd1e0000000000000000000000000000000000000000000000000000000081526004016118449190612570565b60405180910390fd5b6118598260008361207d565b5050565b600073ffffffffffffffffffffffffffffffffffffffff16600760009054906101000a900473ffffffffffffffffffffffffffffffffffffffff1673ffffffffffffffffffffffffffffffffffffffff161461195d576000600760009054906101000a900473ffffffffffffffffffffffffffffffffffffffff1690508073ffffffffffffffffffffffffffffffffffffffff1663b460af948330306040518463ffffffff1660e01b815260040161191793929190612ca7565b6020604051808303816000875af1158015611936573d6000803e3d6000fd5b505050506040513d601f19601f8201168201806040525081019061195a9190612711565b50505b50565b6000600560009054906101000a900473ffffffffffffffffffffffffffffffffffffffff16905081600560006101000a81548173ffffffffffffffffffffffffffffffffffffffff021916908373ffffffffffffffffffffffffffffffffffffffff1602179055508173ffffffffffffffffffffffffffffffffffffffff168173ffffffffffffffffffffffffffffffffffffffff167f8be0079c531659141344cd1fd0a4f28419497f9722a3daafe3b4186f6b6457e060405160405180910390a35050565b600073ffffffffffffffffffffffffffffffffffffffff16600760009054906101000a900473ffffffffffffffffffffffffffffffffffffffff1673ffffffffffffffffffffffffffffffffffffffff1614611baf576000600760009054906101000a900473ffffffffffffffffffffffffffffffffffffffff16905060008173ffffffffffffffffffffffffffffffffffffffff166370a08231306040518263ffffffff1660e01b8152600401611ade9190612570565b602060405180830381865afa158015611afb573d6000803e3d6000fd5b505050506040513d601f19601f82011682018060405250810190611b1f9190612711565b90506000811115611bac578173ffffffffffffffffffffffffffffffffffffffff1663ba0876528230306040518463ffffffff1660e01b8152600401611b6793929190612ca7565b6020604051808303816000875af1158015611b86573d6000803e3d6000fd5b505050506040513d601f19601f82011682018060405250810190611baa9190612711565b505b50505b565b60007f000000000000000000000000000000000000000000000000000000000000000073ffffffffffffffffffffffffffffffffffffffff166370a08231306040518263ffffffff1660e01b8152600401611c0c9190612570565b602060405180830381865afa158015611c29573d6000803e3d6000fd5b505050506040513d601f19601f82011682018060405250810190611c4d9190612711565b90506000811115611cd8578173ffffffffffffffffffffffffffffffffffffffff16636e553f6582306040518363ffffffff1660e01b8152600401611c93929190612cde565b6020604051808303816000875af1158015611cb2573d6000803e3d6000fd5b505050506040513d601f19601f82011682018060405250810190611cd69190612711565b505b5050565b600073ffffffffffffffffffffffffffffffffffffffff168273ffffffffffffffffffffffffffffffffffffffff1603611d4e5760006040517fec442f05000000000000000000000000000000000000000000000000000000008152600401611d459190612570565b60405180910390fd5b611d5a6000838361207d565b5050565b6060600060018451611d70919061297b565b67ffffffffffffffff811115611d8957611d88612d07565b5b604051908082528060200260200182016040528015611db75781602001602082028036833780820191505090505b509050600080600090505b8551811015611e9a578473ffffffffffffffffffffffffffffffffffffffff16868281518110611df557611df4612b69565b5b602002602001015173ffffffffffffffffffffffffffffffffffffffff1614611e8d57858181518110611e2b57611e2a612b69565b5b6020026020010151838380611e3f90612d36565b945081518110611e5257611e51612b69565b5b602002602001019073ffffffffffffffffffffffffffffffffffffffff16908173ffffffffffffffffffffffffffffffffffffffff16815250505b8080600101915050611dc2565b50819250505092915050565b600073ffffffffffffffffffffffffffffffffffffffff168473ffffffffffffffffffffffffffffffffffffffff1603611f185760006040517fe602df05000000000000000000000000000000000000000000000000000000008152600401611f0f9190612570565b60405180910390fd5b600073ffffffffffffffffffffffffffffffffffffffff168373ffffffffffffffffffffffffffffffffffffffff1603611f8a5760006040517f94280d62000000000000000000000000000000000000000000000000000000008152600401611f819190612570565b60405180910390fd5b81600160008673ffffffffffffffffffffffffffffffffffffffff1673ffffffffffffffffffffffffffffffffffffffff16815260200190815260200160002060008573ffffffffffffffffffffffffffffffffffffffff1673ffffffffffffffffffffffffffffffffffffffff168152602001908152602001600020819055508015612077578273ffffffffffffffffffffffffffffffffffffffff168473ffffffffffffffffffffffffffffffffffffffff167f8c5be1e5ebec7d5bd14f71427d1e84f3dd0314c0f7b2291e5b200ac8c7c3b9258460405161206e9190612362565b60405180910390a35b50505050565b600073ffffffffffffffffffffffffffffffffffffffff168373ffffffffffffffffffffffffffffffffffffffff16036120cf5780600260008282546120c3919061276d565b925050819055506121a2565b60008060008573ffffffffffffffffffffffffffffffffffffffff1673ffffffffffffffffffffffffffffffffffffffff1681526020019081526020016000205490508181101561215b578381836040517fe450d38c00000000000000000000000000000000000000000000000000000000815260040161215293929190612c04565b60405180910390fd5b8181036000808673ffffffffffffffffffffffffffffffffffffffff1673ffffffffffffffffffffffffffffffffffffffff16815260200190815260200160002081905550505b600073ffffffffffffffffffffffffffffffffffffffff168273ffffffffffffffffffffffffffffffffffffffff16036121eb5780600260008282540392505081905550612238565b806000808473ffffffffffffffffffffffffffffffffffffffff1673ffffffffffffffffffffffffffffffffffffffff168152602001908152602001600020600082825401925050819055505b8173ffffffffffffffffffffffffffffffffffffffff168373ffffffffffffffffffffffffffffffffffffffff167fddf252ad1be2c89b69c2b068fc378daa952ba7f163c4a11628f55a4df523b3ef836040516122959190612362565b60405180910390a3505050565b82805482825590600052602060002090810192821561231b579160200282015b8281111561231a5782518260006101000a81548173ffffffffffffffffffffffffffffffffffffffff021916908373ffffffffffffffffffffffffffffffffffffffff160217905550916020019190600101906122c2565b5b509050612328919061232c565b5090565b5b8082111561234557600081600090555060010161232d565b5090565b6000819050919050565b61235c81612349565b82525050565b60006020820190506123776000830184612353565b92915050565b600081519050919050565b600082825260208201905092915050565b60005b838110156123b757808201518184015260208101905061239c565b60008484015250505050565b6000601f19601f8301169050919050565b60006123df8261237d565b6123e98185612388565b93506123f9818560208601612399565b612402816123c3565b840191505092915050565b6000602082019050818103600083015261242781846123d4565b905092915050565b600080fd5b600073ffffffffffffffffffffffffffffffffffffffff82169050919050565b600061245f82612434565b9050919050565b61246f81612454565b811461247a57600080fd5b50565b60008135905061248c81612466565b92915050565b61249b81612349565b81146124a657600080fd5b50565b6000813590506124b881612492565b92915050565b600080604083850312156124d5576124d461242f565b5b60006124e38582860161247d565b92505060206124f4858286016124a9565b9150509250929050565b60008115159050919050565b612513816124fe565b82525050565b600060208201905061252e600083018461250a565b92915050565b60006020828403121561254a5761254961242f565b5b6000612558848285016124a9565b91505092915050565b61256a81612454565b82525050565b60006020820190506125856000830184612561565b92915050565b6000806000606084860312156125a4576125a361242f565b5b60006125b28682870161247d565b93505060206125c38682870161247d565b92505060406125d4868287016124a9565b9150509250925092565b6000602082840312156125f4576125f361242f565b5b60006126028482850161247d565b91505092915050565b600060ff82169050919050565b6126218161260b565b82525050565b600060208201905061263c6000830184612618565b92915050565b6000819050919050565b600061266761266261265d84612434565b612642565b612434565b9050919050565b60006126798261264c565b9050919050565b600061268b8261266e565b9050919050565b61269b81612680565b82525050565b60006020820190506126b66000830184612692565b92915050565b600080604083850312156126d3576126d261242f565b5b60006126e18582860161247d565b92505060206126f28582860161247d565b9150509250929050565b60008151905061270b81612492565b92915050565b6000602082840312156127275761272661242f565b5b6000612735848285016126fc565b91505092915050565b7f4e487b7100000000000000000000000000000000000000000000000000000000600052601160045260246000fd5b600061277882612349565b915061278383612349565b925082820190508082111561279b5761279a61273e565b5b92915050565b7f4e487b7100000000000000000000000000000000000000000000000000000000600052602260045260246000fd5b600060028204905060018216806127e857607f821691505b6020821081036127fb576127fa6127a1565b5b50919050565b7f536861726573206d7573742062652067726561746572207468616e2030000000600082015250565b6000612837601d83612388565b915061284282612801565b602082019050919050565b600060208201905081810360008301526128668161282a565b9050919050565b7f496e73756666696369656e742073686172657300000000000000000000000000600082015250565b60006128a3601383612388565b91506128ae8261286d565b602082019050919050565b600060208201905081810360008301526128d281612896565b9050919050565b60006128e482612349565b91506128ef83612349565b92508282026128fd81612349565b915082820484148315176129145761291361273e565b5b5092915050565b7f4e487b7100000000000000000000000000000000000000000000000000000000600052601260045260246000fd5b600061295582612349565b915061296083612349565b9250826129705761296f61291b565b5b828204905092915050565b600061298682612349565b915061299183612349565b92508282039050818111156129a9576129a861273e565b5b92915050565b60006040820190506129c46000830185612561565b6129d16020830184612353565b9392505050565b6129e1816124fe565b81146129ec57600080fd5b50565b6000815190506129fe816129d8565b92915050565b600060208284031215612a1a57612a1961242f565b5b6000612a28848285016129ef565b91505092915050565b7f5472616e73666572206661696c65640000000000000000000000000000000000600082015250565b6000612a67600f83612388565b9150612a7282612a31565b602082019050919050565b60006020820190508181036000830152612a9681612a5a565b9050919050565b6000604082019050612ab26000830185612353565b612abf6020830184612353565b9392505050565b7f416d6f756e74206d7573742062652067726561746572207468616e2030000000600082015250565b6000612afc601d83612388565b9150612b0782612ac6565b602082019050919050565b60006020820190508181036000830152612b2b81612aef565b9050919050565b6000606082019050612b476000830186612561565b612b546020830185612561565b612b616040830184612353565b949350505050565b7f4e487b7100000000000000000000000000000000000000000000000000000000600052603260045260246000fd5b7f4e6f207661756c747320617661696c61626c6500000000000000000000000000600082015250565b6000612bce601383612388565b9150612bd982612b98565b602082019050919050565b60006020820190508181036000830152612bfd81612bc1565b9050919050565b6000606082019050612c196000830186612561565b612c266020830185612353565b612c336040830184612353565b949350505050565b7f417070726f7665206661696c6564000000000000000000000000000000000000600082015250565b6000612c71600e83612388565b9150612c7c82612c3b565b602082019050919050565b60006020820190508181036000830152612ca081612c64565b9050919050565b6000606082019050612cbc6000830186612353565b612cc96020830185612561565b612cd66040830184612561565b949350505050565b6000604082019050612cf36000830185612353565b612d006020830184612561565b9392505050565b7f4e487b7100000000000000000000000000000000000000000000000000000000600052604160045260246000fd5b6000612d4182612349565b91507fffffffffffffffffffffffffffffffffffffffffffffffffffffffffffffffff8203612d7357612d7261273e565b5b60018201905091905056fea26469706673582212203ad87cbb91b3e2fe62f29dc0192b67a36688d8fea20ef59a8c239f7108a6e6d664736f6c634300081c0033",
  "linkReferences": {},
  "deployedLinkReferences": {}
}