{
  "_format": "hh-sol-artifact-1",
  "contractName": "YieldOptimizer",
  "sourceName": "contracts/ezToken.sol",
  "abi": [
    {
      "inputs": [
        {
          "internalType": "contract IERC20",
          "name": "_asset",
          "type": "address"
        },
        {
          "internalType": "address[]",
          "name": "_vaults",
          "type": "address[]"
        }
      ],
      "stateMutability": "nonpayable",
      "type": "constructor"
    },
    {
      "inputs": [
        {
          "internalType": "address",
          "name": "spender",
          "type": "address"
        },
        {
          "internalType": "uint256",
          "name": "allowance",
          "type": "uint256"
        },
        {
          "internalType": "uint256",
          "name": "needed",
          "type": "uint256"
        }
      ],
      "name": "ERC20InsufficientAllowance",
      "type": "error"
    },
    {
      "inputs": [
        {
          "internalType": "address",
          "name": "sender",
          "type": "address"
        },
        {
          "internalType": "uint256",
          "name": "balance",
          "type": "uint256"
        },
        {
          "internalType": "uint256",
          "name": "needed",
          "type": "uint256"
        }
      ],
      "name": "ERC20InsufficientBalance",
      "type": "error"
    },
    {
      "inputs": [
        {
          "internalType": "address",
          "name": "approver",
          "type": "address"
        }
      ],
      "name": "ERC20InvalidApprover",
      "type": "error"
    },
    {
      "inputs": [
        {
          "internalType": "address",
          "name": "receiver",
          "type": "address"
        }
      ],
      "name": "ERC20InvalidReceiver",
      "type": "error"
    },
    {
      "inputs": [
        {
          "internalType": "address",
          "name": "sender",
          "type": "address"
        }
      ],
      "name": "ERC20InvalidSender",
      "type": "error"
    },
    {
      "inputs": [
        {
          "internalType": "address",
          "name": "spender",
          "type": "address"
        }
      ],
      "name": "ERC20InvalidSpender",
      "type": "error"
    },
    {
      "inputs": [
        {
          "internalType": "address",
          "name": "owner",
          "type": "address"
        }
      ],
      "name": "OwnableInvalidOwner",
      "type": "error"
    },
    {
      "inputs": [
        {
          "internalType": "address",
          "name": "account",
          "type": "address"
        }
      ],
      "name": "OwnableUnauthorizedAccount",
      "type": "error"
    },
    {
      "anonymous": false,
      "inputs": [
        {
          "indexed": true,
          "internalType": "address",
          "name": "owner",
          "type": "address"
        },
        {
          "indexed": true,
          "internalType": "address",
          "name": "spender",
          "type": "address"
        },
        {
          "indexed": false,
          "internalType": "uint256",
          "name": "value",
          "type": "uint256"
        }
      ],
      "name": "Approval",
      "type": "event"
    },
    {
      "anonymous": false,
      "inputs": [
        {
          "indexed": true,
          "internalType": "address",
          "name": "user",
          "type": "address"
        },
        {
          "indexed": false,
          "internalType": "uint256",
          "name": "amount",
          "type": "uint256"
        },
        {
          "indexed": false,
          "internalType": "uint256",
          "name": "shares",
          "type": "uint256"
        }
      ],
      "name": "Deposited",
      "type": "event"
    },
    {
      "anonymous": false,
      "inputs": [
        {
          "indexed": true,
          "internalType": "address",
          "name": "previousOwner",
          "type": "address"
        },
        {
          "indexed": true,
          "internalType": "address",
          "name": "newOwner",
          "type": "address"
        }
      ],
      "name": "OwnershipTransferred",
      "type": "event"
    },
    {
      "anonymous": false,
      "inputs": [
        {
          "indexed": true,
          "internalType": "address",
          "name": "newVault",
          "type": "address"
        },
        {
          "indexed": false,
          "internalType": "uint256",
          "name": "amount",
          "type": "uint256"
        }
      ],
      "name": "Rebalanced",
      "type": "event"
    },
    {
      "anonymous": false,
      "inputs": [
        {
          "indexed": true,
          "internalType": "address",
          "name": "from",
          "type": "address"
        },
        {
          "indexed": true,
          "internalType": "address",
          "name": "to",
          "type": "address"
        },
        {
          "indexed": false,
          "internalType": "uint256",
          "name": "value",
          "type": "uint256"
        }
      ],
      "name": "Transfer",
      "type": "event"
    },
    {
      "anonymous": false,
      "inputs": [
        {
          "indexed": true,
          "internalType": "address",
          "name": "vault",
          "type": "address"
        }
      ],
      "name": "VaultAdded",
      "type": "event"
    },
    {
      "anonymous": false,
      "inputs": [
        {
          "indexed": true,
          "internalType": "address",
          "name": "vault",
          "type": "address"
        }
      ],
      "name": "VaultRemoved",
      "type": "event"
    },
    {
      "anonymous": false,
      "inputs": [
        {
          "indexed": true,
          "internalType": "address",
          "name": "user",
          "type": "address"
        },
        {
          "indexed": false,
          "internalType": "uint256",
          "name": "amount",
          "type": "uint256"
        },
        {
          "indexed": false,
          "internalType": "uint256",
          "name": "shares",
          "type": "uint256"
        }
      ],
      "name": "Withdrawn",
      "type": "event"
    },
    {
      "inputs": [
        {
          "internalType": "address",
          "name": "vault",
          "type": "address"
        }
      ],
      "name": "addVault",
      "outputs": [],
      "stateMutability": "nonpayable",
      "type": "function"
    },
    {
      "inputs": [
        {
          "internalType": "address",
          "name": "owner",
          "type": "address"
        },
        {
          "internalType": "address",
          "name": "spender",
          "type": "address"
        }
      ],
      "name": "allowance",
      "outputs": [
        {
          "internalType": "uint256",
          "name": "",
          "type": "uint256"
        }
      ],
      "stateMutability": "view",
      "type": "function"
    },
    {
      "inputs": [
        {
          "internalType": "uint256",
          "name": "",
          "type": "uint256"
        }
      ],
      "name": "allowedVaults",
      "outputs": [
        {
          "internalType": "address",
          "name": "",
          "type": "address"
        }
      ],
      "stateMutability": "view",
      "type": "function"
    },
    {
      "inputs": [
        {
          "internalType": "address",
          "name": "spender",
          "type": "address"
        },
        {
          "internalType": "uint256",
          "name": "value",
          "type": "uint256"
        }
      ],
      "name": "approve",
      "outputs": [
        {
          "internalType": "bool",
          "name": "",
          "type": "bool"
        }
      ],
      "stateMutability": "nonpayable",
      "type": "function"
    },
    {
      "inputs": [],
      "name": "asset",
      "outputs": [
        {
          "internalType": "contract IERC20",
          "name": "",
          "type": "address"
        }
      ],
      "stateMutability": "view",
      "type": "function"
    },
    {
      "inputs": [
        {
          "internalType": "address",
          "name": "account",
          "type": "address"
        }
      ],
      "name": "balanceOf",
      "outputs": [
        {
          "internalType": "uint256",
          "name": "",
          "type": "uint256"
        }
      ],
      "stateMutability": "view",
      "type": "function"
    },
    {
      "inputs": [],
      "name": "currentVault",
      "outputs": [
        {
          "internalType": "address",
          "name": "",
          "type": "address"
        }
      ],
      "stateMutability": "view",
      "type": "function"
    },
    {
      "inputs": [],
      "name": "decimals",
      "outputs": [
        {
          "internalType": "uint8",
          "name": "",
          "type": "uint8"
        }
      ],
      "stateMutability": "view",
      "type": "function"
    },
    {
      "inputs": [
        {
          "internalType": "uint256",
          "name": "amount",
          "type": "uint256"
        }
      ],
      "name": "deposit",
      "outputs": [
        {
          "internalType": "uint256",
          "name": "shares",
          "type": "uint256"
        }
      ],
      "stateMutability": "nonpayable",
      "type": "function"
    },
    {
      "inputs": [],
      "name": "findBestVault",
      "outputs": [
        {
          "internalType": "address",
          "name": "best",
          "type": "address"
        }
      ],
      "stateMutability": "view",
      "type": "function"
    },
    {
      "inputs": [],
      "name": "lastRebalance",
      "outputs": [
        {
          "internalType": "uint256",
          "name": "",
          "type": "uint256"
        }
      ],
      "stateMutability": "view",
      "type": "function"
    },
    {
      "inputs": [],
      "name": "name",
      "outputs": [
        {
          "internalType": "string",
          "name": "",
          "type": "string"
        }
      ],
      "stateMutability": "view",
      "type": "function"
    },
    {
      "inputs": [],
      "name": "owner",
      "outputs": [
        {
          "internalType": "address",
          "name": "",
          "type": "address"
        }
      ],
      "stateMutability": "view",
      "type": "function"
    },
    {
      "inputs": [],
      "name": "rebalance",
      "outputs": [],
      "stateMutability": "nonpayable",
      "type": "function"
    },
    {
      "inputs": [
        {
          "internalType": "address",
          "name": "vault",
          "type": "address"
        }
      ],
      "name": "removeVault",
      "outputs": [],
      "stateMutability": "nonpayable",
      "type": "function"
    },
    {
      "inputs": [],
      "name": "renounceOwnership",
      "outputs": [],
      "stateMutability": "nonpayable",
      "type": "function"
    },
    {
      "inputs": [],
      "name": "symbol",
      "outputs": [
        {
          "internalType": "string",
          "name": "",
          "type": "string"
        }
      ],
      "stateMutability": "view",
      "type": "function"
    },
    {
      "inputs": [],
      "name": "totalAssets",
      "outputs": [
        {
          "internalType": "uint256",
          "name": "",
          "type": "uint256"
        }
      ],
      "stateMutability": "view",
      "type": "function"
    },
    {
      "inputs": [],
      "name": "totalSupply",
      "outputs": [
        {
          "internalType": "uint256",
          "name": "",
          "type": "uint256"
        }
      ],
      "stateMutability": "view",
      "type": "function"
    },
    {
      "inputs": [
        {
          "internalType": "address",
          "name": "to",
          "type": "address"
        },
        {
          "internalType": "uint256",
          "name": "value",
          "type": "uint256"
        }
      ],
      "name": "transfer",
      "outputs": [
        {
          "internalType": "bool",
          "name": "",
          "type": "bool"
        }
      ],
      "stateMutability": "nonpayable",
      "type": "function"
    },
    {
      "inputs": [
        {
          "internalType": "address",
          "name": "from",
          "type": "address"
        },
        {
          "internalType": "address",
          "name": "to",
          "type": "address"
        },
        {
          "internalType": "uint256",
          "name": "value",
          "type": "uint256"
        }
      ],
      "name": "transferFrom",
      "outputs": [
        {
          "internalType": "bool",
          "name": "",
          "type": "bool"
        }
      ],
      "stateMutability": "nonpayable",
      "type": "function"
    },
    {
      "inputs": [
        {
          "internalType": "address",
          "name": "newOwner",
          "type": "address"
        }
      ],
      "name": "transferOwnership",
      "outputs": [],
      "stateMutability": "nonpayable",
      "type": "function"
    },
    {
      "inputs": [
        {
          "internalType": "uint256",
          "name": "shares",
          "type": "uint256"
        }
      ],
      "name": "withdraw",
      "outputs": [
        {
          "internalType": "uint256",
          "name": "amount",
          "type": "uint256"
        }
      ],
      "stateMutability": "nonpayable",
      "type": "function"
    }
  ],
  "bytecode": "0x60a060405234801561001057600080fd5b5060405161399238038061399283398181016040528101906100329190610618565b336040518060400160405280600f81526020017f5969656c64204f7074696d697a657200000000000000000000000000000000008152506040518060400160405280600281526020017f594f00000000000000000000000000000000000000000000000000000000000081525081600390816100ae9190610895565b5080600490816100be9190610895565b505050600073ffffffffffffffffffffffffffffffffffffffff168173ffffffffffffffffffffffffffffffffffffffff16036101335760006040517f1e4fbdf700000000000000000000000000000000000000000000000000000000815260040161012a9190610976565b60405180910390fd5b610142816101c160201b60201c565b508173ffffffffffffffffffffffffffffffffffffffff1660808173ffffffffffffffffffffffffffffffffffffffff168152505060005b81518110156101b9576101ac82828151811061019957610198610991565b5b602002602001015161028760201b60201c565b808060010191505061017a565b505050610ada565b6000600560009054906101000a900473ffffffffffffffffffffffffffffffffffffffff16905081600560006101000a81548173ffffffffffffffffffffffffffffffffffffffff021916908373ffffffffffffffffffffffffffffffffffffffff1602179055508173ffffffffffffffffffffffffffffffffffffffff168173ffffffffffffffffffffffffffffffffffffffff167f8be0079c531659141344cd1fd0a4f28419497f9722a3daafe3b4186f6b6457e060405160405180910390a35050565b6006819080600181540180825580915050600190039060005260206000200160009091909190916101000a81548173ffffffffffffffffffffffffffffffffffffffff021916908373ffffffffffffffffffffffffffffffffffffffff16021790555060805173ffffffffffffffffffffffffffffffffffffffff1663095ea7b3827fffffffffffffffffffffffffffffffffffffffffffffffffffffffffffffffff6040518363ffffffff1660e01b81526004016103479291906109cf565b6020604051808303816000875af1158015610366573d6000803e3d6000fd5b505050506040513d601f19601f8201168201806040525081019061038a9190610a30565b6103c9576040517f08c379a00000000000000000000000000000000000000000000000000000000081526004016103c090610aba565b60405180910390fd5b8073ffffffffffffffffffffffffffffffffffffffff167f7b7ef7a864d96a85497a1ed846adb39940dd6ccef678ff6ac8d55505e09b8cc460405160405180910390a250565b6000604051905090565b600080fd5b600080fd5b600073ffffffffffffffffffffffffffffffffffffffff82169050919050565b600061044e82610423565b9050919050565b600061046082610443565b9050919050565b61047081610455565b811461047b57600080fd5b50565b60008151905061048d81610467565b92915050565b600080fd5b6000601f19601f8301169050919050565b7f4e487b7100000000000000000000000000000000000000000000000000000000600052604160045260246000fd5b6104e182610498565b810181811067ffffffffffffffff82111715610500576104ff6104a9565b5b80604052505050565b600061051361040f565b905061051f82826104d8565b919050565b600067ffffffffffffffff82111561053f5761053e6104a9565b5b602082029050602081019050919050565b600080fd5b61055e81610443565b811461056957600080fd5b50565b60008151905061057b81610555565b92915050565b600061059461058f84610524565b610509565b905080838252602082019050602084028301858111156105b7576105b6610550565b5b835b818110156105e057806105cc888261056c565b8452602084019350506020810190506105b9565b5050509392505050565b600082601f8301126105ff576105fe610493565b5b815161060f848260208601610581565b91505092915050565b6000806040838503121561062f5761062e610419565b5b600061063d8582860161047e565b925050602083015167ffffffffffffffff81111561065e5761065d61041e565b5b61066a858286016105ea565b9150509250929050565b600081519050919050565b7f4e487b7100000000000000000000000000000000000000000000000000000000600052602260045260246000fd5b600060028204905060018216806106c657607f821691505b6020821081036106d9576106d861067f565b5b50919050565b60008190508160005260206000209050919050565b60006020601f8301049050919050565b600082821b905092915050565b6000600883026107417fffffffffffffffffffffffffffffffffffffffffffffffffffffffffffffffff82610704565b61074b8683610704565b95508019841693508086168417925050509392505050565b6000819050919050565b6000819050919050565b600061079261078d61078884610763565b61076d565b610763565b9050919050565b6000819050919050565b6107ac83610777565b6107c06107b882610799565b848454610711565b825550505050565b600090565b6107d56107c8565b6107e08184846107a3565b505050565b5b81811015610804576107f96000826107cd565b6001810190506107e6565b5050565b601f8211156108495761081a816106df565b610823846106f4565b81016020851015610832578190505b61084661083e856106f4565b8301826107e5565b50505b505050565b600082821c905092915050565b600061086c6000198460080261084e565b1980831691505092915050565b6000610885838361085b565b9150826002028217905092915050565b61089e82610674565b67ffffffffffffffff8111156108b7576108b66104a9565b5b6108c182546106ae565b6108cc828285610808565b600060209050601f8311600181146108ff57600084156108ed578287015190505b6108f78582610879565b86555061095f565b601f19841661090d866106df565b60005b8281101561093557848901518255600182019150602085019450602081019050610910565b86831015610952578489015161094e601f89168261085b565b8355505b6001600288020188555050505b505050505050565b61097081610443565b82525050565b600060208201905061098b6000830184610967565b92915050565b7f4e487b7100000000000000000000000000000000000000000000000000000000600052603260045260246000fd5b6109c981610763565b82525050565b60006040820190506109e46000830185610967565b6109f160208301846109c0565b9392505050565b60008115159050919050565b610a0d816109f8565b8114610a1857600080fd5b50565b600081519050610a2a81610a04565b92915050565b600060208284031215610a4657610a45610419565b5b6000610a5484828501610a1b565b91505092915050565b600082825260208201905092915050565b7f417070726f7665206661696c6564000000000000000000000000000000000000600082015250565b6000610aa4600e83610a5d565b9150610aaf82610a6e565b602082019050919050565b60006020820190508181036000830152610ad381610a97565b9050919050565b608051612e6c610b266000396000818161046b015281816108d10152818161098a01528181610ac701528181610c3201528181610e0f015281816116920152611c6d0152612e6c6000f3fe608060405234801561001057600080fd5b506004361061014d5760003560e01c806338d52e0f116100c3578063a9059cbb1161007c578063a9059cbb14610380578063b6b55f25146103b0578063ceb68c23146103e0578063dd62ed3e146103fc578063e8bd8e3f1461042c578063f2fde38b1461044a5761014d565b806338d52e0f146102e257806370a0823114610300578063715018a6146103305780637d7c2a1c1461033a5780638da5cb5b1461034457806395d89b41146103625761014d565b806318160ddd1161011557806318160ddd1461020c57806323b872dd1461022a578063256b5a021461025a5780632b0c6c45146102765780632e1a7d4d14610294578063313ce567146102c45761014d565b806301e1d1141461015257806306fdde0314610170578063095ea7b31461018e578063106b9ca1146101be5780631746a22b146101dc575b600080fd5b61015a610466565b604051610167919061241a565b60405180910390f35b61017861069b565b60405161018591906124c5565b60405180910390f35b6101a860048036038101906101a39190612576565b61072d565b6040516101b591906125d1565b60405180910390f35b6101c6610750565b6040516101d3919061241a565b60405180910390f35b6101f660048036038101906101f191906125ec565b610756565b6040516102039190612628565b60405180910390f35b610214610795565b604051610221919061241a565b60405180910390f35b610244600480360381019061023f9190612643565b61079f565b60405161025191906125d1565b60405180910390f35b610274600480360381019061026f9190612696565b6107ce565b005b61027e6107e2565b60405161028b9190612628565b60405180910390f35b6102ae60048036038101906102a991906125ec565b610808565b6040516102bb919061241a565b60405180910390f35b6102cc610abc565b6040516102d991906126df565b60405180910390f35b6102ea610ac5565b6040516102f79190612759565b60405180910390f35b61031a60048036038101906103159190612696565b610ae9565b604051610327919061241a565b60405180910390f35b610338610b31565b005b610342610b45565b005b61034c610cea565b6040516103599190612628565b60405180910390f35b61036a610d14565b60405161037791906124c5565b60405180910390f35b61039a60048036038101906103959190612576565b610da6565b6040516103a791906125d1565b60405180910390f35b6103ca60048036038101906103c591906125ec565b610dc9565b6040516103d7919061241a565b60405180910390f35b6103fa60048036038101906103f59190612696565b611065565b005b61041660048036038101906104119190612774565b611159565b604051610423919061241a565b60405180910390f35b6104346111e0565b6040516104419190612628565b60405180910390f35b610464600480360381019061045f9190612696565b61137d565b005b6000807f000000000000000000000000000000000000000000000000000000000000000073ffffffffffffffffffffffffffffffffffffffff166370a08231306040518263ffffffff1660e01b81526004016104c29190612628565b602060405180830381865afa1580156104df573d6000803e3d6000fd5b505050506040513d601f19601f8201168201806040525081019061050391906127c9565b9050600073ffffffffffffffffffffffffffffffffffffffff16600760009054906101000a900473ffffffffffffffffffffffffffffffffffffffff1673ffffffffffffffffffffffffffffffffffffffff1614610694576000600760009054906101000a900473ffffffffffffffffffffffffffffffffffffffff16905060008173ffffffffffffffffffffffffffffffffffffffff166370a08231306040518263ffffffff1660e01b81526004016105bd9190612628565b602060405180830381865afa1580156105da573d6000803e3d6000fd5b505050506040513d601f19601f820116820180604052508101906105fe91906127c9565b90506000811115610691578173ffffffffffffffffffffffffffffffffffffffff16634cdad506826040518263ffffffff1660e01b8152600401610642919061241a565b602060405180830381865afa15801561065f573d6000803e3d6000fd5b505050506040513d601f19601f8201168201806040525081019061068391906127c9565b8361068e9190612825565b92505b50505b8091505090565b6060600380546106aa90612888565b80601f01602080910402602001604051908101604052809291908181526020018280546106d690612888565b80156107235780601f106106f857610100808354040283529160200191610723565b820191906000526020600020905b81548152906001019060200180831161070657829003601f168201915b5050505050905090565b600080610738611403565b905061074581858561140b565b600191505092915050565b60085481565b6006818154811061076657600080fd5b906000526020600020016000915054906101000a900473ffffffffffffffffffffffffffffffffffffffff1681565b6000600254905090565b6000806107aa611403565b90506107b785828561141d565b6107c28585856114b2565b60019150509392505050565b6107d66115a6565b6107df8161162d565b50565b600760009054906101000a900473ffffffffffffffffffffffffffffffffffffffff1681565b600080821161084c576040517f08c379a000000000000000000000000000000000000000000000000000000000815260040161084390612905565b60405180910390fd5b8161085633610ae9565b1015610897576040517f08c379a000000000000000000000000000000000000000000000000000000000815260040161088e90612971565b60405180910390fd5b60006108a1610466565b90506108ab610795565b81846108b79190612991565b6108c19190612a02565b91506108cd33846117d3565b60007f000000000000000000000000000000000000000000000000000000000000000073ffffffffffffffffffffffffffffffffffffffff166370a08231306040518263ffffffff1660e01b81526004016109289190612628565b602060405180830381865afa158015610945573d6000803e3d6000fd5b505050506040513d601f19601f8201168201806040525081019061096991906127c9565b9050828110156109885761098781846109829190612a33565b611855565b5b7f000000000000000000000000000000000000000000000000000000000000000073ffffffffffffffffffffffffffffffffffffffff1663a9059cbb33856040518363ffffffff1660e01b81526004016109e3929190612a67565b6020604051808303816000875af1158015610a02573d6000803e3d6000fd5b505050506040513d601f19601f82011682018060405250810190610a269190612abc565b610a65576040517f08c379a0000000000000000000000000000000000000000000000000000000008152600401610a5c90612b35565b60405180910390fd5b3373ffffffffffffffffffffffffffffffffffffffff167f92ccf450a286a957af52509bc1c9939d1a6a481783e142e41e2499f0bb66ebc68486604051610aad929190612b55565b60405180910390a25050919050565b60006012905090565b7f000000000000000000000000000000000000000000000000000000000000000081565b60008060008373ffffffffffffffffffffffffffffffffffffffff1673ffffffffffffffffffffffffffffffffffffffff168152602001908152602001600020549050919050565b610b396115a6565b610b4360006119b8565b565b6000610b4f6111e0565b9050600760009054906101000a900473ffffffffffffffffffffffffffffffffffffffff1673ffffffffffffffffffffffffffffffffffffffff168173ffffffffffffffffffffffffffffffffffffffff1614610ce057610bae611a7e565b610bb781611c69565b80600760006101000a81548173ffffffffffffffffffffffffffffffffffffffff021916908373ffffffffffffffffffffffffffffffffffffffff1602179055508073ffffffffffffffffffffffffffffffffffffffff167f1427d1942829759938581ce754fd0f7f116bfb7a4b77f80f0cb32cd62c2138c77f000000000000000000000000000000000000000000000000000000000000000073ffffffffffffffffffffffffffffffffffffffff166370a08231306040518263ffffffff1660e01b8152600401610c899190612628565b602060405180830381865afa158015610ca6573d6000803e3d6000fd5b505050506040513d601f19601f82011682018060405250810190610cca91906127c9565b604051610cd7919061241a565b60405180910390a25b4260088190555050565b6000600560009054906101000a900473ffffffffffffffffffffffffffffffffffffffff16905090565b606060048054610d2390612888565b80601f0160208091040260200160405190810160405280929190818152602001828054610d4f90612888565b8015610d9c5780601f10610d7157610100808354040283529160200191610d9c565b820191906000526020600020905b815481529060010190602001808311610d7f57829003601f168201915b5050505050905090565b600080610db1611403565b9050610dbe8185856114b2565b600191505092915050565b6000808211610e0d576040517f08c379a0000000000000000000000000000000000000000000000000000000008152600401610e0490612bca565b60405180910390fd5b7f000000000000000000000000000000000000000000000000000000000000000073ffffffffffffffffffffffffffffffffffffffff166323b872dd3330856040518463ffffffff1660e01b8152600401610e6a93929190612bea565b6020604051808303816000875af1158015610e89573d6000803e3d6000fd5b505050506040513d601f19601f82011682018060405250810190610ead9190612abc565b610eec576040517f08c379a0000000000000000000000000000000000000000000000000000000008152600401610ee390612b35565b60405180910390fd5b600073ffffffffffffffffffffffffffffffffffffffff16600760009054906101000a900473ffffffffffffffffffffffffffffffffffffffff1673ffffffffffffffffffffffffffffffffffffffff1603610f8b57610f4a6111e0565b600760006101000a81548173ffffffffffffffffffffffffffffffffffffffff021916908373ffffffffffffffffffffffffffffffffffffffff1602179055505b610fb6600760009054906101000a900473ffffffffffffffffffffffffffffffffffffffff16611c69565b6000610fc0610466565b90506000610fcc610795565b03610fd957829150611005565b8281610fe59190612a33565b610fed610795565b84610ff89190612991565b6110029190612a02565b91505b61100f3383611d94565b3373ffffffffffffffffffffffffffffffffffffffff167f73a19dd210f1a7f902193214c0ee91dd35ee5b4d920cba8d519eca65a7b488ca8484604051611057929190612b55565b60405180910390a250919050565b61106d6115a6565b6110fd60068054806020026020016040519081016040528092919081815260200182805480156110f257602002820191906000526020600020905b8160009054906101000a900473ffffffffffffffffffffffffffffffffffffffff1673ffffffffffffffffffffffffffffffffffffffff16815260200190600101908083116110a8575b505050505082611e16565b6006908051906020019061111292919061235a565b508073ffffffffffffffffffffffffffffffffffffffff167fe71f3a50e5ad81964f352c411f1d45e35438ecd1acecef59ac81d9fbbf6cbc0a60405160405180910390a250565b6000600160008473ffffffffffffffffffffffffffffffffffffffff1673ffffffffffffffffffffffffffffffffffffffff16815260200190815260200160002060008373ffffffffffffffffffffffffffffffffffffffff1673ffffffffffffffffffffffffffffffffffffffff16815260200190815260200160002054905092915050565b6000806000905060005b6006805490508110156113095760006006828154811061120d5761120c612c21565b5b9060005260206000200160009054906101000a900473ffffffffffffffffffffffffffffffffffffffff16905060008173ffffffffffffffffffffffffffffffffffffffff16635257b5666040518163ffffffff1660e01b8152600401602060405180830381865afa158015611287573d6000803e3d6000fd5b505050506040513d601f19601f820116820180604052508101906112ab91906127c9565b9050838111156112fa57809350600683815481106112cc576112cb612c21565b5b9060005260206000200160009054906101000a900473ffffffffffffffffffffffffffffffffffffffff1694505b505080806001019150506111ea565b50600073ffffffffffffffffffffffffffffffffffffffff168273ffffffffffffffffffffffffffffffffffffffff1603611379576040517f08c379a000000000000000000000000000000000000000000000000000000000815260040161137090612c9c565b60405180910390fd5b5090565b6113856115a6565b600073ffffffffffffffffffffffffffffffffffffffff168173ffffffffffffffffffffffffffffffffffffffff16036113f75760006040517f1e4fbdf70000000000000000000000000000000000000000000000000000000081526004016113ee9190612628565b60405180910390fd5b611400816119b8565b50565b600033905090565b6114188383836001611f5e565b505050565b60006114298484611159565b90507fffffffffffffffffffffffffffffffffffffffffffffffffffffffffffffffff8110156114ac578181101561149c578281836040517ffb8f41b200000000000000000000000000000000000000000000000000000000815260040161149393929190612cbc565b60405180910390fd5b6114ab84848484036000611f5e565b5b50505050565b600073ffffffffffffffffffffffffffffffffffffffff168373ffffffffffffffffffffffffffffffffffffffff16036115245760006040517f96c6fd1e00000000000000000000000000000000000000000000000000000000815260040161151b9190612628565b60405180910390fd5b600073ffffffffffffffffffffffffffffffffffffffff168273ffffffffffffffffffffffffffffffffffffffff16036115965760006040517fec442f0500000000000000000000000000000000000000000000000000000000815260040161158d9190612628565b60405180910390fd5b6115a1838383612135565b505050565b6115ae611403565b73ffffffffffffffffffffffffffffffffffffffff166115cc610cea565b73ffffffffffffffffffffffffffffffffffffffff161461162b576115ef611403565b6040517f118cdaa70000000000000000000000000000000000000000000000000000000081526004016116229190612628565b60405180910390fd5b565b6006819080600181540180825580915050600190039060005260206000200160009091909190916101000a81548173ffffffffffffffffffffffffffffffffffffffff021916908373ffffffffffffffffffffffffffffffffffffffff1602179055507f000000000000000000000000000000000000000000000000000000000000000073ffffffffffffffffffffffffffffffffffffffff1663095ea7b3827fffffffffffffffffffffffffffffffffffffffffffffffffffffffffffffffff6040518363ffffffff1660e01b815260040161170b929190612a67565b6020604051808303816000875af115801561172a573d6000803e3d6000fd5b505050506040513d601f19601f8201168201806040525081019061174e9190612abc565b61178d576040517f08c379a000000000000000000000000000000000000000000000000000000000815260040161178490612d3f565b60405180910390fd5b8073ffffffffffffffffffffffffffffffffffffffff167f7b7ef7a864d96a85497a1ed846adb39940dd6ccef678ff6ac8d55505e09b8cc460405160405180910390a250565b600073ffffffffffffffffffffffffffffffffffffffff168273ffffffffffffffffffffffffffffffffffffffff16036118455760006040517f96c6fd1e00000000000000000000000000000000000000000000000000000000815260040161183c9190612628565b60405180910390fd5b61185182600083612135565b5050565b600073ffffffffffffffffffffffffffffffffffffffff16600760009054906101000a900473ffffffffffffffffffffffffffffffffffffffff1673ffffffffffffffffffffffffffffffffffffffff16146119b5576000600760009054906101000a900473ffffffffffffffffffffffffffffffffffffffff1690508073ffffffffffffffffffffffffffffffffffffffff1663a6afed956040518163ffffffff1660e01b8152600401600060405180830381600087803b15801561191a57600080fd5b505af115801561192e573d6000803e3d6000fd5b505050508073ffffffffffffffffffffffffffffffffffffffff1663b460af948330306040518463ffffffff1660e01b815260040161196f93929190612d5f565b6020604051808303816000875af115801561198e573d6000803e3d6000fd5b505050506040513d601f19601f820116820180604052508101906119b291906127c9565b50505b50565b6000600560009054906101000a900473ffffffffffffffffffffffffffffffffffffffff16905081600560006101000a81548173ffffffffffffffffffffffffffffffffffffffff021916908373ffffffffffffffffffffffffffffffffffffffff1602179055508173ffffffffffffffffffffffffffffffffffffffff168173ffffffffffffffffffffffffffffffffffffffff167f8be0079c531659141344cd1fd0a4f28419497f9722a3daafe3b4186f6b6457e060405160405180910390a35050565b600073ffffffffffffffffffffffffffffffffffffffff16600760009054906101000a900473ffffffffffffffffffffffffffffffffffffffff1673ffffffffffffffffffffffffffffffffffffffff1614611c67576000600760009054906101000a900473ffffffffffffffffffffffffffffffffffffffff16905060008173ffffffffffffffffffffffffffffffffffffffff166370a08231306040518263ffffffff1660e01b8152600401611b369190612628565b602060405180830381865afa158015611b53573d6000803e3d6000fd5b505050506040513d601f19601f82011682018060405250810190611b7791906127c9565b90506000811115611c64578173ffffffffffffffffffffffffffffffffffffffff1663a6afed956040518163ffffffff1660e01b8152600401600060405180830381600087803b158015611bca57600080fd5b505af1158015611bde573d6000803e3d6000fd5b505050508173ffffffffffffffffffffffffffffffffffffffff1663ba0876528230306040518463ffffffff1660e01b8152600401611c1f93929190612d5f565b6020604051808303816000875af1158015611c3e573d6000803e3d6000fd5b505050506040513d601f19601f82011682018060405250810190611c6291906127c9565b505b50505b565b60007f000000000000000000000000000000000000000000000000000000000000000073ffffffffffffffffffffffffffffffffffffffff166370a08231306040518263ffffffff1660e01b8152600401611cc49190612628565b602060405180830381865afa158015611ce1573d6000803e3d6000fd5b505050506040513d601f19601f82011682018060405250810190611d0591906127c9565b90506000811115611d90578173ffffffffffffffffffffffffffffffffffffffff16636e553f6582306040518363ffffffff1660e01b8152600401611d4b929190612d96565b6020604051808303816000875af1158015611d6a573d6000803e3d6000fd5b505050506040513d601f19601f82011682018060405250810190611d8e91906127c9565b505b5050565b600073ffffffffffffffffffffffffffffffffffffffff168273ffffffffffffffffffffffffffffffffffffffff1603611e065760006040517fec442f05000000000000000000000000000000000000000000000000000000008152600401611dfd9190612628565b60405180910390fd5b611e1260008383612135565b5050565b6060600060018451611e289190612a33565b67ffffffffffffffff811115611e4157611e40612dbf565b5b604051908082528060200260200182016040528015611e6f5781602001602082028036833780820191505090505b509050600080600090505b8551811015611f52578473ffffffffffffffffffffffffffffffffffffffff16868281518110611ead57611eac612c21565b5b602002602001015173ffffffffffffffffffffffffffffffffffffffff1614611f4557858181518110611ee357611ee2612c21565b5b6020026020010151838380611ef790612dee565b945081518110611f0a57611f09612c21565b5b602002602001019073ffffffffffffffffffffffffffffffffffffffff16908173ffffffffffffffffffffffffffffffffffffffff16815250505b8080600101915050611e7a565b50819250505092915050565b600073ffffffffffffffffffffffffffffffffffffffff168473ffffffffffffffffffffffffffffffffffffffff1603611fd05760006040517fe602df05000000000000000000000000000000000000000000000000000000008152600401611fc79190612628565b60405180910390fd5b600073ffffffffffffffffffffffffffffffffffffffff168373ffffffffffffffffffffffffffffffffffffffff16036120425760006040517f94280d620000000000000000000000000000000000000000000000000000000081526004016120399190612628565b60405180910390fd5b81600160008673ffffffffffffffffffffffffffffffffffffffff1673ffffffffffffffffffffffffffffffffffffffff16815260200190815260200160002060008573ffffffffffffffffffffffffffffffffffffffff1673ffffffffffffffffffffffffffffffffffffffff16815260200190815260200160002081905550801561212f578273ffffffffffffffffffffffffffffffffffffffff168473ffffffffffffffffffffffffffffffffffffffff167f8c5be1e5ebec7d5bd14f71427d1e84f3dd0314c0f7b2291e5b200ac8c7c3b92584604051612126919061241a565b60405180910390a35b50505050565b600073ffffffffffffffffffffffffffffffffffffffff168373ffffffffffffffffffffffffffffffffffffffff160361218757806002600082825461217b9190612825565b9250508190555061225a565b60008060008573ffffffffffffffffffffffffffffffffffffffff1673ffffffffffffffffffffffffffffffffffffffff16815260200190815260200160002054905081811015612213578381836040517fe450d38c00000000000000000000000000000000000000000000000000000000815260040161220a93929190612cbc565b60405180910390fd5b8181036000808673ffffffffffffffffffffffffffffffffffffffff1673ffffffffffffffffffffffffffffffffffffffff16815260200190815260200160002081905550505b600073ffffffffffffffffffffffffffffffffffffffff168273ffffffffffffffffffffffffffffffffffffffff16036122a357806002600082825403925050819055506122f0565b806000808473ffffffffffffffffffffffffffffffffffffffff1673ffffffffffffffffffffffffffffffffffffffff168152602001908152602001600020600082825401925050819055505b8173ffffffffffffffffffffffffffffffffffffffff168373ffffffffffffffffffffffffffffffffffffffff167fddf252ad1be2c89b69c2b068fc378daa952ba7f163c4a11628f55a4df523b3ef8360405161234d919061241a565b60405180910390a3505050565b8280548282559060005260206000209081019282156123d3579160200282015b828111156123d25782518260006101000a81548173ffffffffffffffffffffffffffffffffffffffff021916908373ffffffffffffffffffffffffffffffffffffffff1602179055509160200191906001019061237a565b5b5090506123e091906123e4565b5090565b5b808211156123fd5760008160009055506001016123e5565b5090565b6000819050919050565b61241481612401565b82525050565b600060208201905061242f600083018461240b565b92915050565b600081519050919050565b600082825260208201905092915050565b60005b8381101561246f578082015181840152602081019050612454565b60008484015250505050565b6000601f19601f8301169050919050565b600061249782612435565b6124a18185612440565b93506124b1818560208601612451565b6124ba8161247b565b840191505092915050565b600060208201905081810360008301526124df818461248c565b905092915050565b600080fd5b600073ffffffffffffffffffffffffffffffffffffffff82169050919050565b6000612517826124ec565b9050919050565b6125278161250c565b811461253257600080fd5b50565b6000813590506125448161251e565b92915050565b61255381612401565b811461255e57600080fd5b50565b6000813590506125708161254a565b92915050565b6000806040838503121561258d5761258c6124e7565b5b600061259b85828601612535565b92505060206125ac85828601612561565b9150509250929050565b60008115159050919050565b6125cb816125b6565b82525050565b60006020820190506125e660008301846125c2565b92915050565b600060208284031215612602576126016124e7565b5b600061261084828501612561565b91505092915050565b6126228161250c565b82525050565b600060208201905061263d6000830184612619565b92915050565b60008060006060848603121561265c5761265b6124e7565b5b600061266a86828701612535565b935050602061267b86828701612535565b925050604061268c86828701612561565b9150509250925092565b6000602082840312156126ac576126ab6124e7565b5b60006126ba84828501612535565b91505092915050565b600060ff82169050919050565b6126d9816126c3565b82525050565b60006020820190506126f460008301846126d0565b92915050565b6000819050919050565b600061271f61271a612715846124ec565b6126fa565b6124ec565b9050919050565b600061273182612704565b9050919050565b600061274382612726565b9050919050565b61275381612738565b82525050565b600060208201905061276e600083018461274a565b92915050565b6000806040838503121561278b5761278a6124e7565b5b600061279985828601612535565b92505060206127aa85828601612535565b9150509250929050565b6000815190506127c38161254a565b92915050565b6000602082840312156127df576127de6124e7565b5b60006127ed848285016127b4565b91505092915050565b7f4e487b7100000000000000000000000000000000000000000000000000000000600052601160045260246000fd5b600061283082612401565b915061283b83612401565b9250828201905080821115612853576128526127f6565b5b92915050565b7f4e487b7100000000000000000000000000000000000000000000000000000000600052602260045260246000fd5b600060028204905060018216806128a057607f821691505b6020821081036128b3576128b2612859565b5b50919050565b7f536861726573206d7573742062652067726561746572207468616e2030000000600082015250565b60006128ef601d83612440565b91506128fa826128b9565b602082019050919050565b6000602082019050818103600083015261291e816128e2565b9050919050565b7f496e73756666696369656e742073686172657300000000000000000000000000600082015250565b600061295b601383612440565b915061296682612925565b602082019050919050565b6000602082019050818103600083015261298a8161294e565b9050919050565b600061299c82612401565b91506129a783612401565b92508282026129b581612401565b915082820484148315176129cc576129cb6127f6565b5b5092915050565b7f4e487b7100000000000000000000000000000000000000000000000000000000600052601260045260246000fd5b6000612a0d82612401565b9150612a1883612401565b925082612a2857612a276129d3565b5b828204905092915050565b6000612a3e82612401565b9150612a4983612401565b9250828203905081811115612a6157612a606127f6565b5b92915050565b6000604082019050612a7c6000830185612619565b612a89602083018461240b565b9392505050565b612a99816125b6565b8114612aa457600080fd5b50565b600081519050612ab681612a90565b92915050565b600060208284031215612ad257612ad16124e7565b5b6000612ae084828501612aa7565b91505092915050565b7f5472616e73666572206661696c65640000000000000000000000000000000000600082015250565b6000612b1f600f83612440565b9150612b2a82612ae9565b602082019050919050565b60006020820190508181036000830152612b4e81612b12565b9050919050565b6000604082019050612b6a600083018561240b565b612b77602083018461240b565b9392505050565b7f416d6f756e74206d7573742062652067726561746572207468616e2030000000600082015250565b6000612bb4601d83612440565b9150612bbf82612b7e565b602082019050919050565b60006020820190508181036000830152612be381612ba7565b9050919050565b6000606082019050612bff6000830186612619565b612c0c6020830185612619565b612c19604083018461240b565b949350505050565b7f4e487b7100000000000000000000000000000000000000000000000000000000600052603260045260246000fd5b7f4e6f207661756c747320617661696c61626c6500000000000000000000000000600082015250565b6000612c86601383612440565b9150612c9182612c50565b602082019050919050565b60006020820190508181036000830152612cb581612c79565b9050919050565b6000606082019050612cd16000830186612619565b612cde602083018561240b565b612ceb604083018461240b565b949350505050565b7f417070726f7665206661696c6564000000000000000000000000000000000000600082015250565b6000612d29600e83612440565b9150612d3482612cf3565b602082019050919050565b60006020820190508181036000830152612d5881612d1c565b9050919050565b6000606082019050612d74600083018661240b565b612d816020830185612619565b612d8e6040830184612619565b949350505050565b6000604082019050612dab600083018561240b565b612db86020830184612619565b9392505050565b7f4e487b7100000000000000000000000000000000000000000000000000000000600052604160045260246000fd5b6000612df982612401565b91507fffffffffffffffffffffffffffffffffffffffffffffffffffffffffffffffff8203612e2b57612e2a6127f6565b5b60018201905091905056fea2646970667358221220287a44edaf6bf40979e1cbeb73479ec1096773c04d6a8407a5a84103b0c52d3e64736f6c634300081c0033",
  "linkReferences": {},
  "deployedLinkReferences": {}
}